:100000000C942F010C9487150C9460150C945701D7
:100010000C9457010C9457010C9406160C9457013C
:100020000C9457010C9457010C9457010C945701F0
:100030000C9457010C9457010C9457010C945701E0
:100040000C942A1A0C9457010C94D4150C94AE15E8
:100050000C9457010C9457010C9457010C945701C0
:100060000C9457010C94570107634236B79BD8A7ED
:100070001A39685618AEBAAB558C1D3CB7CC5763CD
:10008000BD6DEDFD753EF6177231BF000000803F7B
:1000900005A84CCDB2D44EB93836A9020C50B9914E
:1000A0008688083CA6AAAA2ABE000000803F080055
:1000B0000000BE922449123EABAAAA2ABECDCCCCE7
:1000C0004C3E00000080BEABAAAAAA3E0000000081
:1000D000BF000000803F0000000000084178D3BB53
:1000E0004387D1133D190E3CC3BD4282AD2B3E6800
:1000F000EC8276BED98FE1A93E4C80EFFFBE01C4F1
:10010000FF7F3F000000000000407A10F35A00A07B
:10011000724E18090010A5D4E80000E876481700D0
:1001200000E40B54020000CA9A3B000000E1F50510
:10013000000080969800000040420F000000A0865A
:1001400001000000102700000000E803000000008C
:100150006400000000000A00000000000100000030
:1001600000002C76D888DC674F0823DFC1DFAE594A
:10017000E1B1B796E5E3E453C63AE651997696E8DD
:10018000E6C28426EB898C9B62ED407C6FFCEFBC61
:100190009C9F40F2BAA56FA5F490055A2AF75C938C
:1001A0006B6CF9676DC11BFCE0E40D47FEF520E6C2
:1001B000B500D0ED902E0300943577050080841EA5
:1001C000080000204E0A000000C80C333333330F00
:1001D000986E12831141EF8D2114893BE65516CF9D
:1001E000FEE6DB18D1844B381BF77C1D901DA4BBA9
:1001F000E424203284725E228100C9F124ECA1E55E
:100200003D2700000000240027002A000000000015
:10021000250028002B0000000000230026002900F4
:10022000040404040404040402020202020203039C
:1002300003030303010204081020408001020408A4
:100240001020010204081020000000080002010034
:100250000003040700000000000000000921112431
:100260001FBECFEFD8E0DEBFCDBF25E0AAEBB4E0E4
:1002700001C01D92AB36B207E1F714E0A0E0B1E097
:10028000ECE7F5E502C005900D92AA3BB107D9F75E
:1002900011E0CFE2D1E004C02197FE010E94AA281C
:1002A000CE32D107C9F70E94741A0C94BC2A0C9460
:1002B0000000CF92DF92EF92FF92DC01ED91FC9172
:1002C0000190F081E02D09956B017C0120E030E088
:1002D000A9010E94F123882319F12DEC3CEC4CE498
:1002E0005DE3C701B6010E94F12387FD1DC02DEC1F
:1002F0003CEC4CEC5DE3C701B6010E94F12387FDA5
:1003000018C02AE939E949E95EE3C701B6010E944C
:10031000F12387FD13C060E070E080E89FE312C026
:1003200060E070E0CB010EC06DEC7CEC8CE49DE3F2
:1003300009C06DEC7CEC8CEC9DE304C060E070E0E7
:1003400080E09FE3FF90EF90DF90CF900895FC0155
:10035000648175818681978108950F931F93CF9350
:10036000DF93EC018D89882319F08C898823D9F1DA
:100370000A891B89D8011296ED91FC911397149666
:100380008D919C911597309739F00995F801668306
:1003900077838087918704C0D801ED91FC910995FE
:1003A000EA89FB894A815B816C817D8186819781A5
:1003B000A085B185840F951FA61FB71F0197A109BE
:1003C000B1098A839B83AC83BD8382859385009723
:1003D00029F48C89882329F08E859F859B8B8A8BB5
:1003E00009C081E08D8B8FEF9FEFDC018A839B83B7
:1003F000AC83BD83DF91CF911F910F910895FC01D4
:10040000158A86859785938B828B1282138214823C
:10041000158281E008950895089581E00895089572
:1004200080E0089580E0089580E00895FC0161A5D2
:1004300072A583A594A508950F931F93CF93DF937F
:10044000CDB7DEB72C970FB6F894DEBF0FBECDBF89
:10045000FC010481158168EB74E0CE0101960E94D5
:100460000614BE016F5F7F4FCE0107960E940111F7
:10047000B801CE0107960E94E31067ED71E00E947B
:10048000E3100E94DF18CE0107960E94FC10CE01F7
:1004900001960E94FC1081EC94E00E941E122C96A2
:1004A0000FB6F894DEBF0FBECDBFDF91CF911F9185
:1004B0000F910895EF92FF920F931F93CF93DF93C5
:1004C000CDB7DEB72C970FB6F894DEBF0FBECDBF09
:1004D0008C01FC01E480F58068EB74E0CE010196AC
:1004E0000E940614BE016F5F7F4FCE0107960E94E7
:1004F0000111B701CE0107960E94E31067ED71E08C
:100500000E94E3100E94DF18CE0107960E94FC10A3
:10051000CE0101960E94FC1081EC94E00E941E1214
:10052000F801868197810E94DE162C960FB6F8940A
:10053000DEBF0FBECDBFDF91CF911F910F91FF9016
:10054000EF900895CF92DF92EF92FF920F931F9357
:10055000CF93DF938C01FC0182810E94E219EC01B0
:10056000F80182810E94E2198C0F9D1F97FD019670
:10057000BC0175956795072E000C880B990B0E949E
:10058000F8236B017C01F8018381682F70E080E023
:1005900090E00E94F8239B01AC016AE078E280EAD7
:1005A0009BE30E94B9259B01AC01C701B6010E94E3
:1005B0005724DF91CF911F910F91FF90EF90DF9023
:1005C000CF9008954F925F926F927F928F929F92F9
:1005D000AF92BF92CF92DF92EF92FF92CF93DF93D1
:1005E000EC010E94A202C884D984EA84FB84A7019A
:1005F00096010E94F12387FD12C0CE010E94A20243
:10060000CC80DD80EE80FF80A70196010E946126EC
:1006100018162CF0CE010E94A2026B017C01888882
:100620009988AA88BB88A5019401C701B6010E94D8
:10063000612687FD31C04C845D846E847F84A30174
:100640009201C701B6010E944C256B017C01A501F6
:10065000940160E070E080E89FE30E944C259B01DC
:10066000AC01C701B6010E9457246B017C01A301B4
:1006700092016C817D818E819F810E944C259B011E
:10068000AC01C701B6010E94B9259B01AC01C501AF
:10069000B4010E944D251EC0488459846A847B841D
:1006A000A3019201C701B6010E944C25A501940146
:1006B0000E9457246B017C01A30192016C857D850A
:1006C0008E859F850E944C259B01AC01C701B60118
:1006D0000E94B925DF91CF91FF90EF90DF90CF90EE
:1006E000BF90AF909F908F907F906F905F904F9052
:1006F00008950F931F93CF93DF938C01FC0186A184
:100700000E94E219EC01F80186A10E94E2198C0F07
:100710009D1FBC01990F880B990B0E94F82320E0C4
:1007200030E040E05FE30E94572420E030EC4FE7E8
:1007300054E40E94B92520E030E040EA50E40E94F1
:10074000572420E030E048EC52E40E94572420E097
:1007500030E048E452E40E944C25DF91CF911F9194
:100760000F9108954F925F926F927F928F929F9216
:10077000AF92BF92CF92DF92EF92FF920F931F93AF
:10078000CF93DF93CDB7DEB764970FB6F894DEBF93
:100790000FBECDBF8C01DC011E96ED90FC901F9723
:1007A000D70114968D919D910D90BC91A02D898BB0
:1007B0009A8BAB8BBC8B2DEC3CEC4CE45EE3BC0128
:1007C000CD010E94612618160CF007C2C7010E94D5
:1007D00079036B017C0168EB74E0CE0107960E94FF
:1007E0000614BE01695F7F4FCE0101960E94011180
:1007F00064EE71E0CE0101960E94E310B701A601FC
:100800000E9445100E94DF18CE0101960E94FC1044
:10081000CE0107960E94FC1081EC94E00E941E120B
:10082000A701960160E070E088E492E40E944C2504
:100830006B017C0120E030E040E251E40E9457244B
:10084000F801248D358D468D578D0E944D252B0145
:100850003C0120E030E0A9010E94F12387FF11C094
:1008600020E030E04AEF53ECC301B2010E94612660
:100870001816BCF0412C512C3AEF632E33EC732E3A
:1008800010C020E030E04AEF53E4C301B2010E94FF
:10089000F12387FD06C0412C512C2AEF622E23E460
:1008A000722ED8015C964D925D926D927C925F970C
:1008B00094964D905D906D907C90979790968D90CA
:1008C0009D90AD90BC9093972FEF3FEF4FE75FE780
:1008D000C301B2010E94F123811115C02FEF3FEF38
:1008E0004FE75FE7C501B4010E94F1238823A1F11E
:1008F000A5019401C701B6010E944C2520E030E01B
:1009000040E251E424C020E030E040E450E4C7017C
:10091000B6010E9457246D877E878F87988B20E0D1
:1009200030E040E850E4C501B4010E9457249B0127
:10093000AC016D857E858F8598890E944C25A30129
:1009400092010E944D2520E030E040EA51E40E94EF
:10095000B9252B013C0103C0412C512C3201F80177
:1009600084A295A2A6A2B7A2C0A2D1A2E2A2F3A29B
:100970002089318942895389C701B6010E945724D1
:100980006D877E878F87988B68EB74E0CE01079622
:100990000E940614BE01695F7F4FCE0101960E943E
:1009A00001116BEE71E0CE0101960E94E3104D85BE
:1009B0005E856F8578890E9445100E94DF18CE0100
:1009C00001960E94FC10CE0107960E94FC1081EC5B
:1009D00094E00E941E12F801248D358D468D578DAE
:1009E00064897589868997890E9457246D877E87D7
:1009F0008F87988B68EB74E0CE0107960E940614EF
:100A0000BE01695F7F4FCE0101960E94011167EF21
:100A100071E0CE0101960E94E3104D855E856F85E1
:100A200078890E9445100E94DF18CE0101960E942D
:100A3000FC10CE0107960E94FC1081EC94E00E940D
:100A40001E12D80158962D913D914D915C915B9766
:100A5000C301B2010E9457246D877E878F87988BD0
:100A600068EB74E0CE0107960E940614BE01695F30
:100A70007F4FCE0101960E9401116BE072E0CE0122
:100A800001960E94E3104D855E856F8578890E94EE
:100A900045100E94DF18CE0101960E94FC10CE0185
:100AA00007960E94FC1081EC94E00E941E12F8014F
:100AB0002089318942895389C701B6010E94572490
:100AC0006B017C01D8015C962D913D914D915C911B
:100AD0005F9754966D917D918D919C9157970E944F
:100AE00057249B01AC01C701B6010E944D256B0143
:100AF0007C01F801208D318D428D538DC301B201EF
:100B00000E9457249B01AC01C701B6010E944D25EC
:100B10006B017C0168EB74E0CE0101960E94061423
:100B2000BE016F5F7F4FCE0107960E94011165E104
:100B300072E0CE0107960E94E310B701A6010E9461
:100B400045100E94DF18CE0107960E94FC10CE01CE
:100B500001960E94FC1081EC94E00E941E1220E09D
:100B600030E040E05FE3C701B6010E94572420E077
:100B700030E040E85FE30E944D259B01AC016989AC
:100B80007A898B899C890E9457246B017C0168EBD0
:100B900074E0CE0101960E940614BE016F5F7F4F84
:100BA000CE0107960E9401116DE272E0CE01079618
:100BB0000E94E310A601B7010E9445100E94DF18B1
:100BC000CE0107960E94FC10CE0101960E94FC10F7
:100BD00081EC94E00E941E1206C0C12CD12C80E84A
:100BE000E82E9FE3F92ED8011E96ED91FC911F97F8
:100BF00087A190A5DC01ED91FC910280F381E02DAD
:100C000009959B01AC01B601C7010E94F12387FD44
:100C10000FC0D8011E96ED91FC911F9787A190A55A
:100C2000DC01ED91FC910280F381E02D099502C079
:100C3000B601C7018B019C01C901B80164960FB6CA
:100C4000F894DEBF0FBECDBFDF91CF911F910F9102
:100C5000FF90EF90DF90CF90BF90AF909F908F90DC
:100C60007F906F905F904F900895CF93DF93FC013A
:100C7000148E158E168E178E4FEF5FEF6FE77FE79E
:100C800044A355A366A377A340A351A362A373A370
:100C9000C685D7850E94B20369AB7AAB8BAB9CABA0
:100CA000DF91CF9108958F929F92AF92BF92CF9292
:100CB000DF92EF92FF920F931F93CF93DF93CDB705
:100CC000DEB767970FB6F894DEBF0FBECDBF5C01ED
:100CD0007A018B0168EB74E0CE0101966C010E94F1
:100CE0000614B601CE0108960E9401116FEC72E065
:100CF000CE0108960E94E310A701B8010E9445109A
:100D00000E94DF18CE0108960E94FC10C6010E94C6
:100D1000FC1081EC94E00E941E1220E030E0A9015A
:100D2000B701C8010E94F12387FD0FC020E030E029
:100D300040E85FE3B701C8010E94612618164CF431
:100D4000E12CF12C00E81FE304C0E12CF12C00E0C1
:100D500010E0C701D801F50184839583A683B7838A
:100D600026EB33EF4DEF5CE3B701C8010E94F1239E
:100D70001816B4F020E030E04FE753E4B701C801A3
:100D80000E94572426EB33EF4DEF5CE30E94B92518
:100D90000E943226F501608720E030E0A90113C0EF
:100DA0008FEFF501808726EB33EF4DEF5CE3B70162
:100DB000C8010E944C2522E630E148E75FE30E942B
:100DC000B9259B01AC01F501108568EB74E0C60103
:100DD0002C8B3D8B4E8B5F8B0E940614B601CE018F
:100DE00008960E94011169E472E0CE0108960E9403
:100DF000E310612F0E94B2100E94DF18CE01089606
:100E00000E94FC10C6010E94FC1081EC94E00E943C
:100E10001E12F501828193812C893D894E895F895B
:100E2000892B69F490856FEF70E0FB01E91BF109F4
:100E3000CF010E9488195F894E893D892C8960E025
:100E400070E080E89FE30E944C2520E030E040E81D
:100E500053E40E9457240E942B264B015C0168EB4F
:100E600074E0CE010E960E940614BE01625F7F4FB1
:100E7000CE0108960E94011165E572E0CE01089648
:100E80000E94E3108C014AE0B601C4010E94612176
:100E9000F60101900020E9F73197AF014C195D0987
:100EA000B601C8010E940510811103C0C8010E944B
:100EB0003310C8010E94DF18CE0108960E94FC1072
:100EC000CE010E960E94FC1081EC94E00E941E124E
:100ED000F1E09F220CB405FE0CC08EBC00000DB4E6
:100EE00007FEFDCF8EB59EBC00000DB407FEFDCF02
:100EF0000BC09EBC00000DB407FEFDCF8EB58EBCAE
:100F000000000DB407FEFDCF8EB503EE13E0C8015F
:100F10000197F1F761E08AE00E941C19C80101976E
:100F2000F1F760E08AE00E941C1967960FB6F8940A
:100F3000DEBF0FBECDBFDF91CF911F910F91FF900C
:100F4000EF90DF90CF90BF90AF909F908F900895DB
:100F50004F925F926F927F92AF92BF92CF92DF9249
:100F6000EF92FF920F931F93CF93DF93EC010E85C7
:100F70001F850E94B203F80161AB72AB83AB94ABE7
:100F80000E84DF85C02D4C805D806E807F80E9A857
:100F9000FAA80BA91CA99701A801C301B2010E94DC
:100FA000612618161CF4A701B80120C0ADA4BEA488
:100FB000CFA4D8A89501A601C301B2010E94F123D4
:100FC00087FF25C09701A801C301B2010E94F12348
:100FD0008823E9F09701A801B501C6010E94F12319
:100FE00087FD02C057016801A501B601CE01DF915E
:100FF000CF911F910F91FF90EF90DF90CF90BF9016
:10100000AF907F906F905F904F900C945306DF915C
:10101000CF911F910F91FF90EF90DF90CF90BF90F5
:10102000AF907F906F905F904F9008950F931F93B4
:10103000CF93DF93CDB7DEB72C970FB6F894DEBF12
:101040000FBECDBF0091BA041091BB040E94F818E6
:1010500068EB74E0892B09F063C0CE0107960E940B
:101060000614BE01695F7F4FCE0101960E940111F7
:1010700066E672E0CE0101960E94E3100E94DF183E
:10108000CE0101960E94FC10CE0107960E94FC1032
:1010900081EC94E00E941E12F80182819381892BD9
:1010A000E1F468EB74E0CE0101960E940614BE01E3
:1010B0006F5F7F4FCE0107960E94011168E772E0D3
:1010C000CE0107960E94E3100E94DF18CE0107961A
:1010D0000E94FC10CE01019662C0F80113821282B8
:1010E0000E941E1AF8016487758786879787648334
:1010F00075838683978384819581A681B781408596
:10110000518562857385841B950BA60BB70B8C32BA
:101110009140A105B10508F484C0F801108A81C08E
:10112000CE0107960E940614BE01695F7F4FCE0173
:1011300001960E94011169E972E0CE0101960E94B8
:10114000E3100E94DF18CE0101960E94FC10CE0130
:1011500007960E94FC1081EC94E00E941E12F80198
:1011600082819381019711F568EB74E0CE010796B7
:101170000E940614BE01695F7F4FCE0101960E9456
:1011800001116BEA72E0CE0101960E94E3100E9409
:10119000DF18CE0101960E94FC10CE0107960E9436
:1011A000FC1081EC94E00E941E123BC081E090E0B4
:1011B000F801938382830E941E1AF8016487758761
:1011C00086879787608771878287938780859185D7
:1011D000A285B3854481558166817781841B950BF7
:1011E000A60BB70B8C329140A105B10520F4F80194
:1011F00080898F5F14C0F80180859185A285B385B1
:101200004481558166817781841B950BA60BB70BB2
:1012100081399140A105B10520F481E0F801808B6E
:10122000118AF80180819181BC0167587F4F0E942B
:101230001D162C960FB6F894DEBF0FBECDBFDF9102
:10124000CF911F910F9108950C9445290C94452935
:101250000C9445290C9445298F929F92AF92BF928E
:10126000CF92DF92EF92FF920F931F93CF93DF9372
:10127000CDB7DEB72C970FB6F894DEBF0FBECDBF4B
:101280008C016A017B0168EB74E0CE0101960E943B
:101290000614BE016F5F7F4FCE0107960E940111B9
:1012A0006EEC72E0CE0107960E94E310A601B70132
:1012B0000E9445100E94DF18CE0107960E94FC1084
:1012C000CE0101960E94FC1081EC94E00E941E1257
:1012D00020E030E0A901B601C7010E94F12387FD9B
:1012E00011C020E030E040E85FE3B601C7010E9492
:1012F000612618165CF4C12CD12C80E8E82E9FE3FF
:10130000F92E04C0C12CD12CE12CF12CC601D7013F
:10131000F80181A792A7A3A7B4A781858823D1F15B
:101320002AE037ED43EA5DE3B601C7010E94F123ED
:101330002AE037ED43E25EE3B60187FF16C0C7013E
:101340000E944D2521EE3AE744E95FE30E94B9256A
:101350002BEC3DE34DE05EE30E944C2528E830E8AD
:1013600043E05EE30E9457240FC0C7010E944D2551
:1013700021EE3AE744E95FE30E94B92520E030E03E
:1013800040E450E40E946626F80165A776A787A787
:1013900090AB07C0C601D701F80185A796A7A7A7FC
:1013A000B0ABF801C5A4D6A4E7A4F0A881A892A880
:1013B000A3A8B4A89401A501B601C7010E94F12316
:1013C00087FD02C064017501A601B701C8010E9432
:1013D00053062C960FB6F894DEBF0FBECDBFDF913B
:1013E000CF911F910F91FF90EF90DF90CF90BF9022
:1013F000AF909F908F900895CF92DF92EF92FF92DF
:101400000F931F93CF93DF93CDB7DEB72C970FB613
:10141000F894DEBF0FBECDBF7C018B01672B29F096
:101420009DEEC92E92E0D92E04C08AEEC82E82E02D
:10143000D82E68EB74E0CE0101960E940614BE011E
:101440006F5F7F4FCE0107960E94011161EF72E03E
:10145000CE0107960E94E310B6010E94E3100E949D
:10146000DF18CE0107960E94FC10CE0101960E9463
:10147000FC1081EC94E00E941E120115110559F434
:10148000F70190852FEF30E0A901491B5109CA01EE
:101490000E94881904C061E089E00E941C19F701CC
:1014A000138302832C960FB6F894DEBF0FBECDBF18
:1014B000DF91CF911F910F91FF90EF90DF90CF9030
:1014C0000895AF92BF92CF92DF92EF92FF920F9367
:1014D0001F93CF93DF93CDB7DEB72C970FB6F89459
:1014E000DEBF0FBECDBF8C01FB01D180C0807C016F
:1014F00082EBE80EF11CD701ED91FC91A480B58040
:1015000068EB74E0CE0101960E940614BE016F5F85
:101510007F4FCE0107960E940111B501CE010796BB
:101520000E94E31068E073E00E94E3106C2D0E94BB
:10153000B21067E273E00E94E3106D2D0E94B210BA
:1015400061E373E00E94E3100E94DF18CE0107966A
:101550000E94FC10CE0101960E94FC1081EC94E0E8
:101560000E941E12F701808191810C541F4F801739
:10157000910739F0DC01ED91FC910680F781E02DB7
:101580000995F7011183008360E070E0C8010E94B3
:10159000F4142C960FB6F894DEBF0FBECDBFDF91CA
:1015A000CF911F910F91FF90EF90DF90CF90BF9060
:1015B000AF900895AF92BF92CF92DF92EF92FF92D9
:1015C0000F931F93CF93DF93CDB7DEB762970FB61C
:1015D000F894DEBF0FBECDBF8C016B015A01DB0159
:1015E0001496ED90FC90159768EB74E0CE0101968F
:1015F0000E940614BE016F5F7F4FCE0107960E94C6
:1016000001116DE373E0CE0107960E94E310B7016C
:101610000E94E3100E94DF18CE0107960E94FC1082
:10162000CE0101960E94FC1081EC94E00E941E12F3
:101630007801B2EBEB0EF11CF70180819181DC01A6
:10164000ED91FC910680F781E02D0995F701D1829B
:10165000C082D601ED91FC910480F581E02DB501A9
:10166000C6010995811156C0B501CE0101960E94AF
:101670000614D701ED91FC91C480D58068EB74E02D
:10168000CE010D960E940614BE01635F7F4FCE010E
:1016900007960E940111B601CE0107960E94E31041
:1016A0006EE473E00E94E3106C014D815E816981FC
:1016B0007A810E940510811103C0C6010E94331077
:1016C000C6010E94DF18CE0107960E94FC10CE01D1
:1016D0000D960E94FC10CE0101960E94FC1081EC38
:1016E00094E00E941E12F701808191810C541F4FDB
:1016F0008017910739F0DC01ED91FC910680F781AC
:10170000E02D0995F7011183008360E070E0C801C6
:101710000E94F41462960FB6F894DEBF0FBECDBFE0
:10172000DF91CF911F910F91FF90EF90DF90CF90BD
:10173000BF90AF900895CF93DF93CDB7DEB72C97CE
:101740000FB6F894DEBF0FBECDBFE091BC04F091A0
:10175000BD048085918568EB74E0039701F5CE01A7
:1017600001960E940614BE016F5F7F4FCE0107965F
:101770000E94011164E673E0CE0107960E94E31017
:101780000E94DF18CE0107960E94FC10CE01019640
:101790000E94FC1081EC94E00E941E122FC0CE012A
:1017A00001960E940614BE016F5F7F4FCE0107961F
:1017B0000E9401116AE773E0CE0107960E94E310D0
:1017C0000E94DF18CE0107960E94FC10CE01019600
:1017D0000E94FC1081EC94E00E941E128091BC04D7
:1017E0009091BD0423E030E0FC0131872087BC01EB
:1017F00066537F4F4AE051E00E94DA0A2C960FB6FA
:10180000F894DEBF0FBECDBFDF91CF910895AF92A8
:10181000BF92CF92DF92EF92FF920F931F93CF93DD
:10182000DF93CDB7DEB72C970FB6F894DEBF0FBEAF
:10183000CDBF7C018B016A01DB011496AD90BC9099
:10184000159768EB74E0CE0101960E940614BE0164
:101850006F5F7F4FCE0107960E9401116DE373E029
:10186000CE0107960E94E310B5010E94E3100E948A
:10187000DF18CE0107960E94FC10CE0101960E944F
:10188000FC1081EC94E00E941E125701B2EBAB0EEB
:10189000B11CF50180819181DC01ED91FC91068004
:1018A000F781E02D0995F50111830083D801ED91B1
:1018B000FC910280F381E02DB601C80109958111E8
:1018C00004C0B601C7010E94610A2C960FB6F894B5
:1018D000DEBF0FBECDBFDF91CF911F910F91FF9063
:1018E000EF90DF90CF90BF90AF9008950F931F932C
:1018F000CF93DF93FC013185208582819381311163
:1019000010C041E0420F423060F4BC016C547F4F84
:1019100040E050E00E94070C6FEF7FEF8FEF9FEFEA
:101920003CC0DC01AC5BBF4F12164CF412964D91DB
:101930005C91139741305105E1F021500AC021110B
:101940000AC012962D913C9113972130310571F008
:101950002FEF208709C012964D915C91139741306B
:10196000510539F0315031870CEC01C000E911E02C
:1019700002C008E210E0D0E0C0E08C5B9F4F61E065
:1019800070E0FC0122813381232B11F060E070E0D4
:101990000E94FC09B8018D2F9C2FDF91CF911F91E0
:1019A0000F910895AF92BF92CF92DF92EF92FF9284
:1019B0000F931F93CF93DF93CDB7DEB72C970FB65E
:1019C000F894DEBF0FBECDBF8C015B01672B29F001
:1019D0009DEEE92E92E0F92E04C08AEEE82E82E018
:1019E000F82E68EB74E0CE0101960E940614BE0149
:1019F0006F5F7F4FCE0107960E94011169E873E087
:101A0000CE0107960E94E310B7010E94E3100E94E6
:101A1000DF18CE0107960E94FC10CE0101960E94AD
:101A2000FC1081EC94E00E941E12C801C0967C015B
:101A3000F801E657FF4F6F01AB2809F561E085E03B
:101A40000E941C19B701C8010E941D16B601C801E9
:101A50000E941D1682E090E0F8019187808768EB74
:101A600074E0CE0101960E940614BE016F5F7F4FA5
:101A7000CE0107960E9401116CE973E025C061E078
:101A800070E0C8018C5B9F4F0E94FC09C6010E9458
:101A9000DE16C7010E94DE1660E085E00E941C1978
:101AA00084E090E0F8019187808768EB74E0CE01D4
:101AB00001960E940614BE016F5F7F4FCE0107960C
:101AC0000E94011162EB73E0CE0107960E94E310C1
:101AD0000E94DF18CE0107960E94FC10CE010196ED
:101AE0000E94FC1081EC94E00E941E122C960FB60E
:101AF000F894DEBF0FBECDBFDF91CF911F910F9144
:101B0000FF90EF90DF90CF90BF90AF900895CF936C
:101B1000DF9329EA31E0FC013183208386859785B4
:101B2000009741F0FC01D285C3850E9445298D2F85
:101B30009C2FF6CFDF91CF910895CF93DF93EC01E7
:101B40000E94870DCE01DF91CF910C944529089515
:101B500008950F931F93CF93DF93FC01228133816C
:101B6000232B11F481E019C0EC010E941E1A088594
:101B700019852A853B85DC01CB01801B910BA20BCB
:101B8000B30B8C329140A105B10560F3888988239D
:101B900019F08989882331F380E0DF91CF911F917B
:101BA0000F9108950895CF93DF93EC018AA190E0FF
:101BB000019663E070E00E9454289C018AA3A881EA
:101BC000B981FE01E80FF91F83A1F901EE0FFF1F94
:101BD000E80FF11DEE0FFF1FEE0FFF1FEC0FFD1FB3
:101BE00042855385648575851496ED91FC91159712
:101BF000CE01DF91CF910994CF93DF93FC01AB012C
:101C0000DB018C918823B9F1813069F1823009F0D0
:101C10003FC0828193818C5B9F4FEC01EAA1F0E091
:101C2000DC01AE0FBF1F93962C91939730E02F5F8E
:101C30003F4F2170332793962C93A881B981EE0FE3
:101C4000FF1FE20FF31FEE0FFF1FEE0FFF1FE80F46
:101C5000F91F42855385648575851496ED91FC9135
:101C60001597099513C082819381BC016C547F4FF5
:101C70000E94070C0BC0DB0111968C91882341F068
:101C8000828193818C5B9F4F0E94D30D81E001C0C4
:101C900080E0DF91CF910895FC0162A37727A081B6
:101CA000B181E60FF71F23A1FB01EE0FFF1FE20F2B
:101CB000F11DEE0FFF1FEE0FFF1FE80FF91F42850A
:101CC0005385648575851496ED91FC91159709945B
:101CD0004F925F926F927F92AF92BF92CF92DF92BC
:101CE000EF92FF920F931F93CF93DF93CDB7DEB7A1
:101CF0002E970FB6F894DEBF0FBECDBF8C015B01EF
:101D0000FC01E480F58068EB74E0CE0101960E944E
:101D10000614BE016F5F7F4FCE0107960E9401112E
:101D2000B701CE0107960E94E31062EC73E00E94B7
:101D3000E3100E94DF18CE0107960E94FC10CE012E
:101D400001960E94FC1081EC94E00E941E12F501A5
:101D50008081823689F0843709F0A2C0F80182813F
:101D600093818C5B9F4F0E94790320E030E040E23A
:101D700051E40E94B92515C0F801828193814C96E7
:101D80000E94E20220E030E040E251E40E94572449
:101D90000E942B26062E000C770B880B990B0E94B5
:101DA000F8236B017C010E942B26F801608720E05C
:101DB00030E040E251E4C701B6010E9457242B01F4
:101DC0003C0120E030E0A9010E94612620E030E0E3
:101DD00040E05FE387FD05C0C301B2010E944D25CD
:101DE00004C0C301B2010E944C250E942B26862FFD
:101DF0006AE00E944628F8019187F501B08068EBFF
:101E000074E0CE0101960E940614BE016F5F7F4F01
:101E1000CE0107960E940111BD861E8641E050E06A
:101E2000BE01635F7F4FCE0107960E9405108111AE
:101E300004C0CE0107960E94331060ED73E0CE011E
:101E400007960E94E310B701A6010E9445100E9468
:101E5000DF18CE0107960E94FC10CE0101960E9469
:101E6000FC1081EC94E00E941E12F80182819381A3
:101E700061E070E08C5B9F4F0E944C0EF801828104
:101E8000938161E070E08C5B9F4F0E94FC09F80138
:101E900066817781828193810E941D1681E001C055
:101EA00080E02E960FB6F894DEBF0FBECDBFDF9157
:101EB000CF911F910F91FF90EF90DF90CF90BF9047
:101EC000AF907F906F905F904F900895CF92DF9288
:101ED000EF92FF920F931F93CF93DF93CDB7DEB7AF
:101EE0002C970FB6F894DEBF0FBECDBF8C017B01DF
:101EF000FC01C480D58068EB74E0CE0101960E949D
:101F00000614BE016F5F7F4FCE0107960E9401113C
:101F1000B601CE0107960E94E31062EC73E00E94C6
:101F2000E3100E94DF18CE0107960E94FC10CE013C
:101F300001960E94FC1081EC94E00E941E12F701B1
:101F40008081882381F0813041F0823021F5F801D1
:101F50008281938161E070E00FC0F80182819381FA
:101F600062E070E009C0F70181818823A1F0F801E7
:101F70008281938160E070E08C5B9F4F0E944C0EE9
:101F8000F8018281938160E070E08C5B9F4F0E943A
:101F9000FC0981E001C080E02C960FB6F894DEBF0A
:101FA0000FBECDBFDF91CF911F910F91FF90EF90AA
:101FB000DF90CF90089508950E94A72A0F931F9352
:101FC000CF93DF93EC0188819981009729F02A81D2
:101FD0003B812617370788F48B016F5F7F4F0E9484
:101FE000DD29009761F0998388831B830A832C8104
:101FF0003D81232B11F4FC01108281E001C080E0BF
:10200000DF91CF911F910F910895EF92FF920F935F
:102010001F93CF93DF93FC012481358161157105F6
:1020200011F480E019C041155105A9F07B01EC01C4
:102030008A01020F131FB8010E94DE0F882389F363
:10204000288139818C819D81B701820F931F0E9465
:10205000B52A1D830C8381E0DF91CF911F910F91F1
:10206000FF90EF900895CF93DF93EC0188819981E1
:10207000009711F00E944529198218821D821C8246
:102080001B821A82DF91CF910895EF92FF920F93F6
:102090001F93CF93DF93CDB7DEB764970FB6F89455
:1020A000DEBF0FBECDBF7C01CB01BA018E010F5F39
:1020B0001F4F22E044E00E943621FC0101900020E5
:1020C000E9F73197AF01481B590BBC01C7010E94CA
:1020D0000510811103C0C7010E943310C701649627
:1020E0000FB6F894DEBF0FBECDBFDF91CF911F9129
:1020F0000F91FF90EF900895EF92FF920F931F932F
:10210000CF93DF93CDB7DEB728970FB6F894DEBF35
:102110000FBECDBF7C01CB014AE08E010F5F1F4F88
:10212000B8010E945621F80101900020E9F731978B
:10213000AF01401B510BB801C7010E94051081116E
:1021400003C0C7010E943310C70128960FB6F89448
:10215000DEBF0FBECDBFDF91CF911F910F91FF90DA
:10216000EF900895EF92FF920F931F93CF93DF9319
:1021700000D000D0CDB7DEB77C01862F4AE08E01BB
:102180000F5F1F4FB80190E00E945621F8010190A7
:102190000020E9F73197AF01401B510BB801C7018F
:1021A0000E940510811103C0C7010E943310C701AE
:1021B0000F900F900F900F90DF91CF911F910F9183
:1021C000FF90EF900895CF93DF93EC0161157105B7
:1021D00061F0FB0101900020E9F73197AF01461B48
:1021E000570B0E940510811103C0CE010E943310CD
:1021F000CE01DF91CF910895FC01808191810C94F3
:102200004529EF92FF920F931F93CF93DF93FC0129
:102210001182108213821282158214828617970708
:1022200039F1DB010D911C9111970115110501F197
:10223000EC011496ED90FC901597B7010E94DE0F0B
:10224000811109C0CE01DF91CF911F910F91FF90B5
:10225000EF900C943310FD82EC82B8018881998153
:10226000DF91CF911F910F91FF90EF900C94B52AC1
:10227000DF91CF911F910F91FF90EF9008950895F6
:10228000CF92DF92EF92FF920F931F93CF93DF9342
:102290006C017A018B01C0E0D0E0CE15DF0589F03A
:1022A000D8016D918D01D601ED91FC910190F081E5
:1022B000E02DC6010995892B11F47E0102C02196FB
:1022C000ECCFC701DF91CF911F910F91FF90EF905D
:1022D000DF90CF900895089580E090E00895FC018C
:1022E000538D448D252F30E0842F90E0821B930B7B
:1022F000541710F0CF96089501970895FC01918D21
:10230000828D981761F0828DDF01A80FB11D5D9657
:102310008C91928D9F5F9F73928F90E008958FEFC5
:102320009FEF0895FC01918D828D981731F0828D79
:10233000E80FF11D858D90E008958FEF9FEF0895D0
:10234000FC01918D228D892F90E0805C9F4F821B34
:1023500091098F739927089581EC94E00E94A01150
:1023600021E0892B09F420E0822F0895FC01848D5F
:10237000DF01A80FB11DA35ABF4F2C91848D90E0AF
:1023800001968F739927848FA689B7892C93A0898A
:10239000B1898C9180648C93938D848D981306C041
:1023A0000288F389E02D80818F7D80830895EF92EC
:1023B000FF920F931F93CF93DF93EC0181E0888FFF
:1023C0009B8D8C8D981305C0E889F989808185FDE6
:1023D00024C0F62E0B8D10E00F5F1F4F0F731127D7
:1023E000E02E8C8DE8120CC00FB607FCFACFE889FE
:1023F000F989808185FFF5CFCE010E94B611F1CF1A
:102400008B8DFE01E80FF11DE35AFF4FF0820B8F19
:10241000EA89FB898081806207C0EE89FF89608339
:10242000E889F98980818064808381E090E0DF9190
:10243000CF911F910F91FF90EF900895CF93DF936D
:10244000EC01888D8823C9F0EA89FB89808185FDAC
:1024500005C0A889B9898C9186FD0FC00FB607FC0D
:10246000F5CF808185FFF2CFA889B9898C9185FF4E
:10247000EDCFCE010E94B611E7CFDF91CF91089545
:1024800080E090E0892B29F00E94AC1181110C941E
:10249000000008954115510529F4EAE7F0E0808134
:1024A0008F7780836A307105A9F063FD02C088E0F0
:1024B00001C088E26770682B88E10FB6F894A89590
:1024C000809360000FBE60936000E0E6F0E08081E2
:1024D00080648083232BA1F483B7817F846083BFD2
:1024E000F89483B7816083BF85B7806685BF8F7D91
:1024F00085BF7894889583B78E7F83BF78940EC00C
:1025000083B7817F846083BFF89483B7816083BF82
:102510007894889583B78E7F83BF7894452B29F470
:10252000EAE7F0E08081806880830895CF92DF92AF
:10253000EF92FF9220EDC22E27E0D22EE12CF12C5B
:10254000A70196010E946828683E23E07207810572
:10255000910540F0A7019601261B370B480B590B3C
:10256000CA01B9010E94F62320E030E04AE754E4B2
:102570000E94B925FF90EF90DF90CF900895FC0165
:1025800064A175A186A197A10895DC01ED91FC914C
:102590000280F381E02D60E070E009940C944529FD
:1025A0000C9445290C9445298F929F92AF92BF922B
:1025B000EF92FF920F931F93CF93DF937C01DC0187
:1025C00018968D919C9119978230910589F044F469
:1025D000009709F4A4C0019709F0C2C00AEFA5C092
:1025E0008430910511F19CF0059709F476C0B8C0CC
:1025F000D7011296ED91FC911397EC5BFF4F82810E
:102600009381019709F48EC008E71FE08FC0D701BE
:102610001296ED91FC911397EC5BFF4F82819381B1
:10262000019709F481C000E480C0D7011296ED91B2
:10263000FC911397EC5BFF4F22A130E0DF01A20F6A
:10264000B31F93968C91220F331F280F311D220F39
:10265000331F220F331FE20FF31F82849384A4845D
:10266000B5840E941E1A0E94F6232FE632E143E849
:102670005AE30E9457242BED3FE049E450E40E94C6
:1026800057240E94B62620E030E040E85FE30E9435
:102690004D259B01AC01C501B4010E94572420E0E7
:1026A00030E040E05FE30E9457244B015C012FE6DD
:1026B00032E143E05BE30E946126181644F08FE6A6
:1026C000882E82E1982E83E0A82E8BE3B82EF701A6
:1026D00082819381B501A4011CC00E941E1A0E9430
:1026E00096122FE632E143E05BE30E94F12387FD7F
:1026F00007C00E941E1A0E949612AB01BC0104C0C2
:102700004FE652E163E07BE3D70112968D919C91F5
:1027100013978C5B9F4F0E942C090EE106C004EFBB
:1027200011E004C008E201C000E110E0D0E0C0E028
:10273000F7018085918504970297B8F08281938193
:102740008C5B9F4F61E070E0DC0112962D913C9113
:102750001397232B11F060E070E00E94FC0905C084
:102760006FEF7FEF8FEF9FEF03C0B8018D2F9C2F8E
:10277000DF91CF911F910F91FF90EF90BF90AF909D
:102780009F908F900895FC01AB01DB019C919923F0
:1027900069F1933099F018F4913068F535C09530AF
:1027A000D9F090F0963081F50280F381E02DEC5B5A
:1027B000FF4F918581E08927818724C082819381A1
:1027C000BC0160547F4F1CC082819381BC01665361
:1027D0007F4F44EC51E007C082819381BC01665376
:1027E0007F4F43EC51E00E94DA0A0CC0DB011196E6
:1027F0008C91882349F082819381BC0166547F4F7C
:102800000E94070C81E0089580E00895EF92FF9206
:102810000F931F93CF93DF93EC01198218821B82D1
:102820001A821D821C826115710521F18B01FB0149
:1028300001900020E9F731977F01E61AF70AB70106
:102840000E94DE0F811109C0CE01DF91CF911F914F
:102850000F91FF90EF900C943310FD82EC82B80141
:1028600088819981DF91CF911F910F91FF90EF9017
:102870000C94B52ADF91CF911F910F91FF90EF90AB
:102880000895CF93DF93CDB7DEB72C970FB6F894AA
:10289000DEBF0FBECDBF68EB74E0CE0101960E9493
:1028A0000614BE016F5F7F4FCE0107960E94011193
:1028B00069E674E0CE0107960E94E3100E94DF18DB
:1028C000CE0107960E94FC10CE0101960E94FC10DA
:1028D00081EC94E00E941E122C960FB6F894DEBF95
:1028E0000FBECDBFDF91CF910895CF93DF93CDB7CA
:1028F000DEB72C970FB6F894DEBF0FBECDBF68EBE6
:1029000074E0CE0101960E940614BE016F5F7F4FF6
:10291000CE0107960E94011166E774E0CE0107968A
:102920000E94E3100E94DF18CE0107960E94FC105F
:10293000CE0101960E94FC1081EC94E00E941E12D0
:1029400081E02C960FB6F894DEBF0FBECDBFDF91AD
:10295000CF910895EF92FF920F931F93CF93DF9340
:10296000CDB7DEB72C970FB6F894DEBF0FBECDBF44
:102970008C01FC01E480F58068EB74E0CE010196E7
:102980000E940614BE016F5F7F4FCE0107960E9422
:102990000111B701CE0107960E94E31067ED71E0C7
:1029A0000E94E3100E94DF18CE0107960E94FC10DF
:1029B000CE0101960E94FC1081EC94E00E941E1250
:1029C00060E070E0F801828193810E94D20C2C9625
:1029D0000FB6F894DEBF0FBECDBFDF91CF911F9130
:1029E0000F91FF90EF900895EF92FF920F931F9336
:1029F000CF93DF93CDB7DEB72C970FB6F894DEBF39
:102A00000FBECDBF8C01FC01E480F58068EB74E063
:102A1000CE0101960E940614BE016F5F7F4FCE016A
:102A200007960E940111B701CE0107960E94E3109C
:102A300062EC73E00E94E3100E94DF18CE0107965B
:102A40000E94FC10CE0101960E94FC1081EC94E0E3
:102A50000E941E1261E070E0F801828193810E9461
:102A6000D20CA8950FB6F894A89580916000886163
:102A700080936000109260000FBE20E030E040E0E4
:102A800050E06AE070E080EC94E00E944A12A89561
:102A90009DE088E10FB6F894A895809360000FBE82
:102AA0009093600081E02C960FB6F894DEBF0FBEC5
:102AB000CDBFDF91CF911F910F91FF90EF900895BF
:102AC0001F920F920FB60F9211242F933F934F93A3
:102AD0005F936F937F938F939F93AF93BF93EF9386
:102AE000FF93E0910201F09103010995FF91EF91AD
:102AF000BF91AF919F918F917F916F915F914F9116
:102B00003F912F910F900FBE0F901F9018951F921D
:102B10000F920FB60F9211242F933F934F935F9311
:102B20006F937F938F939F93AF93BF93EF93FF9395
:102B3000E0910001F09101010995FF91EF91BF91A2
:102B4000AF919F918F917F916F915F914F913F9145
:102B50002F910F900FBE0F901F9018951F920F92FC
:102B60000FB60F9211242F933F934F935F936F9360
:102B70007F938F939F93AF93BF93EF93FF9381ECDA
:102B800094E00E94B611FF91EF91BF91AF919F9198
:102B90008F917F916F915F914F913F912F910F9006
:102BA0000FBE0F901F9018951F920F920FB60F92A5
:102BB00011242F938F939F93EF93FF93E091D10470
:102BC000F091D2048081E091D704F091D80482FD85
:102BD00012C090818091DA048F5F8F732091DB04A3
:102BE000821751F0E091DA04F0E0EF53FB4F958F3C
:102BF0008093DA0401C08081FF91EF919F918F91C2
:102C00002F910F900FBE0F901F9018951F920F924B
:102C10000FB60F9211248F930FB6F894A895809158
:102C20006000886180936000109260000FBE8F91F9
:102C30000F900FBE0F901F901895CF93DF93FC015C
:102C4000DB011C968D919C911D978130910551F16E
:102C5000892B79F484819581892B19F47583648398
:102C600006C0A681B7811B967C936E931A977783D3
:102C70006683EB018E819F81A885B9858A839B83BA
:102C8000AC83BD83E881F9810190F081E02DCB0117
:102C90000995882319F081E090E002C082E090E07D
:102CA0009D878C87DF91CF910895EF92FF920F93CC
:102CB0001F93CF93DF93CDB7DEB72C970FB6F89461
:102CC000DEBF0FBECDBF8C01FC01E480F58068EB58
:102CD00074E0CE0101960E940614BE016F5F7F4F23
:102CE000CE0107960E940111B701CE0107960E94FE
:102CF000E31062EC73E00E94E3100E94DF18CE0143
:102D000007960E94FC10CE0101960E94FC1081ECF7
:102D100094E00E941E12F801E084F18468EB74E0F4
:102D2000CE0101960E940614BE016F5F7F4FCE0157
:102D300007960E94011167E974E0CE0107960E9490
:102D4000E310B7010E947C100E94DF18CE010796A5
:102D50000E94FC10CE0101960E94FC1081EC94E0D0
:102D60000E941E12F8018281938161E070E08C5B09
:102D70009F4F0E944C0EF801808591850497029721
:102D800040F48281938160E070E08C5B9F4F0E94F1
:102D9000FC09F80166817781828193810E941D166A
:102DA00081E02C960FB6F894DEBF0FBECDBFDF9149
:102DB000CF911F910F91FF90EF900895CF93DF93E4
:102DC000FC01248535852130310561F4EC01019049
:102DD000F081E02D0280F381E02D099582E090E002
:102DE0009D878C87DF91CF9108958F929F92AF92AC
:102DF000BF92DF92EF92FF920F931F93CF93DF93D7
:102E0000CDB7DEB72E970FB6F894DEBF0FBECDBF9D
:102E10008C01DC011E968D919C911F970A960E9451
:102E2000A90D882309F45AC0F801E684F784D70174
:102E30005B968C91811160C00E941E1AF7018288F6
:102E40009388A488B588DC01CB0188199909AA095F
:102E5000BB098C329140A105B10508F44DC081E059
:102E6000D7015B968C935B975A96DC90D7011C96A2
:102E70008D919C911D97892B11F0F12C22C00E94FD
:102E80001E1AF70186849784A088B188DC01CB01E3
:102E900088199909AA09BB098139F1E09F07A105A1
:102EA000B10558F3BC01CD01605971408109910908
:102EB00028EE33E040E050E00E946828FF24F394BD
:102EC000F20EDD86FE86D11019C0FF2009F461C024
:102ED000D80150968C91F81211C05BC0F894F8019B
:102EE000868597850A960E94A90D811103C0C801A5
:102EF0000E94DE1678944DC0D12CB8CF68EB74E0F8
:102F0000CE0101960E940614BE016F5F7F4FCE0175
:102F100007960E94011164EA74E0CE0107960E94B0
:102F2000E3106D2D0E94B21067E273E00E94E3107F
:102F30006F2D0E94B21061E373E00E94E3100E94C3
:102F4000DF18CE0107960E94FC10CE0101960E9468
:102F5000FC1081EC94E00E941E128E85F801808B9B
:102F600006851785F801EE54FF4F80819181DC01C1
:102F7000ED91FC910190F081E02DBE01635F7F4FE8
:102F80000995811106C0BE01635F7F4FC8010E9491
:102F9000610A2E960FB6F894DEBF0FBECDBFDF914B
:102FA000CF911F910F91FF90EF90DF90BF90AF9066
:102FB0009F908F900895AF92BF92CF92DF92EF9241
:102FC000FF920F931F93CF93DF93CDB7DEB72C976C
:102FD0000FB6F894DEBF0FBECDBF8C017B01FC01A4
:102FE000C680D780A280B380C6010E94DE16B601DB
:102FF000C5010E941D16F7018081882309F44CC089
:10300000813019F0823059F054C0F80182819381E7
:10301000BC016C547F4FA7010E94070C48C0F80107
:1030200080859185019666E070E00E9454287C01BD
:103030009187808768EB74E0CE0101960E940614A8
:10304000BE016F5F7F4FCE0107960E94011167E9B5
:1030500074E0CE0107960E94E310B7010E947C1035
:103060000E94DF18CE0107960E94FC10CE01019647
:103070000E94FC1081EC94E00E941E12F8018085F1
:1030800091850497A1F48281938160E070E08C5B6C
:103090009F4F0E94FC090BC0F7018181882349F0F2
:1030A000F801828193818C5B9F4F0E94D30D81E058
:1030B00001C080E02C960FB6F894DEBF0FBECDBFE6
:1030C000DF91CF911F910F91FF90EF90DF90CF9004
:1030D000BF90AF900895EF92FF920F931F93CF93FD
:1030E000DF93CDB7DEB72C970FB6F894DEBF0FBED7
:1030F000CDBF8C01FC01E480F58068EB74E0CE016B
:1031000001960E940614BE016F5F7F4FCE010796A5
:103110000E940111B701CE0107960E94E31067EDEE
:1031200071E00E94E3100E94DF18CE0107960E9412
:10313000FC10CE0101960E94FC1081EC94E00E94EC
:103140001E12F801868197810E94DE162C960FB61A
:10315000F894DEBF0FBECDBFDF91CF911F910F91CD
:10316000FF90EF900895089508950895833081F0B9
:1031700028F4813099F08230A1F008958730A9F0C9
:103180008830B9F08430D1F4809180008F7D03C005
:10319000809180008F7780938000089584B58F7729
:1031A00002C084B58F7D84BD08958091B0008F7773
:1031B00003C08091B0008F7D8093B0000895CF93BD
:1031C000DF93FC01448155816081718181EC94E041
:1031D0000E944011EC0142E050E066EB74E081ECAB
:1031E00094E00E9440118C0F9D1FDF91CF910895B4
:1031F000CF93DF93EAE4F2E08491E6E3F2E0D49146
:10320000E2E2F2E0C491CC2391F081110E94B61861
:10321000EC2FF0E0EE0FFF1FEA5EFD4FA591B49199
:10322000EC91ED2381E090E021F480E002C080E0A9
:1032300090E0DF91CF9108951F93CF93DF93282FD4
:1032400030E0F901E85BFD4F8491F901EC5CFD4F42
:10325000D491F901E05EFD4FC491CC23C9F0162F43
:1032600081110E94B618EC2FF0E0EE0FFF1FE45F13
:10327000FD4FA591B4918FB7F894111105C09C91A1
:10328000ED2FE095E92302C0EC91ED2BEC938FBF7D
:10329000DF91CF911F910895CF93DF9390E0FC01D0
:1032A000EC5CFD4F2491FC01E05EFD4F849188238E
:1032B00061F190E0880F991FFC01EE5FFD4FC59111
:1032C000D491FC01E45FFD4FA591B491611109C057
:1032D0009FB7F8948881209582238883EC912E23D0
:1032E0000BC0623061F49FB7F8943881822F8095CB
:1032F00083238883EC912E2B2C939FBF06C08FB71E
:10330000F894E8812E2B28838FBFDF91CF91089509
:10331000CF93DF93EC0161E089E00E944C19209784
:1033200011F460E004C0CF3FD10531F461E089E0E1
:10333000DF91CF910C941C19E1E5F2E0E491E330C8
:10334000F9F048F4E130B9F0E230A1F584B58062DB
:1033500084BDC8BD34C0E730E9F0E83019F1E4308D
:1033600049F580918000806280938000D0938B002B
:10337000C0938A0024C084B5806884BDC7BD1FC0C7
:1033800080918000806880938000D0938900C093F2
:10339000880015C08091B00080688093B000C09311
:1033A000B3000DC08091B00080628093B000C093E4
:1033B000B40005C0C038D1050CF0B8CFB2CFDF9152
:1033C000CF9108958E3008F08E508770806480937E
:1033D0007C0080917A00806480937A0080917A00EA
:1033E00086FDFCCF809178002091790090E0922BAF
:1033F00008953FB7F8948091630590916405A0917A
:103400006505B091660526B5A89B05C02F3F19F04C
:103410000196A11DB11D3FBFBA2FA92F982F882754
:10342000820F911DA11DB11DBC01CD0142E0660FAF
:10343000771F881F991F4A95D1F708952FB7F894E1
:1034400060915F05709160058091610590916205C2
:103450002FBF08951F920F920FB60F9211242F9332
:103460003F938F939F93AF93BF9380915F0590910C
:103470006005A0916105B091620530915E0523E081
:10348000230F2D3720F40196A11DB11D05C026E89C
:10349000230F0296A11DB11D20935E0580935F0549
:1034A00090936005A0936105B093620580916305D8
:1034B00090916405A0916505B09166050196A11DE6
:1034C000B11D8093630590936405A0936505B09347
:1034D0006605BF91AF919F918F913F912F910F9072
:1034E0000FBE0F901F901895CF93DF93CDB7DEB727
:1034F0006C970FB6F894DEBF0FBECDBF789484B53D
:10350000826084BD84B5816084BD85B5826085BDDF
:1035100085B5816085BD80916E00816080936E006D
:10352000109281008091810082608093810080915F
:103530008100816080938100809180008160809310
:1035400080008091B10084608093B1008091B000D0
:1035500081608093B00080917A00846080937A00CB
:1035600080917A00826080937A0080917A008160F5
:1035700080937A0080917A00806880937A0010921C
:10358000C100E091D104F091D20482E08083E09107
:10359000CD04F091CE041082E091CF04F091D004DC
:1035A0008FEC80831092D904E091D504F091D60479
:1035B00086E08083E091D304F091D404808180611F
:1035C0008083E091D304F091D4048081886080836B
:1035D000E091D304F091D404808180688083E091ED
:1035E000D304F091D40480818F7D808368EB74E0F4
:1035F000CE0107960E940614BE01695F7F4FCE017F
:1036000001960E94011168ED73E0CE0101960E94BF
:10361000E3100E94DF18CE0101960E94FC10CE013B
:1036200007960E94FC1081EC94E00E941E1284ED2B
:1036300090E00E94B0288C01DC0115961C921E922D
:10364000149717961C921E921697A8950FB6F89489
:10365000A89580916000886180936000109260005E
:103660000FBE0E941E1AF8016083718382839383C8
:10367000118610867801FAE0EF0EF11CD8011B9636
:103680001C930E931A97F80116861786108A118AD2
:1036900052961D921D921D921C925597168A178A5A
:1036A000108E118E128E138E68EB74E0CE01079689
:1036B0000E940614BE01695F7F4FCE0101960E94F1
:1036C000011160EE73E0CE0101960E94E3100E94AA
:1036D000DF18CE0101960E94FC10CE0107960E94D1
:1036E000FC1081EC94E00E941E1262E082E00E94D5
:1036F0004C190E94F9194B015C010E94F919DC0177
:10370000CB0188199909AA09BB09883E9340A105F4
:10371000B10598F30E94F81821E030E0892B11F4EC
:1037200020E030E0D8011D963C932E931C97F09238
:10373000BB04E092BA0486E198E090930101809383
:103740000001809169008C7F816080936900E89A14
:1037500086E696E6A6E8B0E4F80180A391A3A2A3CA
:10376000B3A383E393E3A3E3B0E484A395A3A6A365
:10377000B7A38DEC9CECACE4B0E480A791A7A2A722
:10378000B3A787E896E1A9E5BDE384A795A7A6A717
:10379000B7A780E1868F33243394378E12AA13AAF9
:1037A00014AA15AA88E893E1A0E0B0E086AB97AB35
:1037B000A0AFB1AF13AE12AE15AE14AE87E291E07A
:1037C000958F848F83E391E091AB80AB8BE99BE095
:1037D00097AF86AFE05CFF4F812C912C90E8A92E2B
:1037E0009FE3B92E80829182A282B38268EB74E05B
:1037F000CE0107960E940614BE01695F7F4FCE017D
:1038000001960E9401116AEE73E0CE0101960E94BA
:10381000E3100E94DF18CE0101960E94FC10CE0139
:1038200007960E94FC1081EC94E00E941E1260E05A
:1038300080E10E944C197801F4E4EF0EF11C8DE355
:1038400091E0D7018D939C9380E090E0A0E8BFEBDE
:10385000F70184839583A683B78368EB74E0CE0178
:1038600007960E940614BE01695F7F4FCE01019644
:103870000E94011164EF73E0CE0101960E94E310F3
:103880000E94DF18CE0101960E94FC10CE0107961F
:103890000E94FC1081EC94E00E941E1261E089E01D
:1038A0000E944C1961E089E00E941C1981E090E0BF
:1038B000D70113969C938E93129780918100887FF5
:1038C00084608093810061E08AE00E941C1961E0BD
:1038D0008AE00E944C198CB580618CBD8CB58064E7
:1038E0008CBD61E08DE00E944C1961E08BE00E948C
:1038F0004C1960E08AE00E941C1989E491E0F7010C
:1039000091838083318688E1EBE0F1E0D7011A965C
:1039100001900D928A95E1F782E0D70192968C93FF
:10392000929793961C92939794961C92949795963F
:103930001C9295978FE096968C939697C8014C961B
:1039400098969C938E939797F70111A612A613A6AB
:1039500014A69D961D921D921D921C92D09781AA2D
:1039600092AAA3AAB4AA68EB74E0CE0107960E94BB
:103970000614BE01695F7F4FCE0101960E940111BE
:103980006DEF73E0CE0101960E94E3100E94DF18F4
:10399000CE0101960E94FC10CE0107960E94FC10F9
:1039A00081EC94E00E941E1260E08FE00E944C19AE
:1039B000F801E758FF4F12821382148215828AE0C1
:1039C00090E0A0E0B0E086839783A087B18713865C
:1039D000128615861486D801A957BF4F0D931C93E4
:1039E00085E591E091838083108A68EB74E0CE01D5
:1039F00007960E940614BE01695F7F4FCE010196B3
:103A00000E94011167E074E0CE0101960E94E3106C
:103A10000E94DF18CE0101960E94FC10CE0107968D
:103A20000E94FC1081EC94E00E941E12F801E657FF
:103A3000FF4F128213821482158280E197E2A0E088
:103A4000B0E086839783A087B18713861286158698
:103A500014868FE591E091838083F786E6868FE672
:103A600092E1A3E0BBE3808B918BA28BB38B87E1C8
:103A700097EBA1EDB7E3848B958BA68BB78B80E09A
:103A800090E0A0ECBFE3808F918FA28FB38F3801BD
:103A9000F2EB6F0E711CD3011D921C92F801EA54D7
:103AA000FF4F118300834801B4EB8B0E911C82E120
:103AB00094E0F4019583848389E691E09183808387
:103AC00068EB74E0CE0107960E940614BE01695FA0
:103AD0007F4FCE0101960E94011162E174E0CE0198
:103AE00001960E94E3106FE174E00E94E31062E12E
:103AF00074E00E94E3100E94DF18CE0101960E943C
:103B0000FC10CE0107960E94FC1081EC94E00E940C
:103B10001E12F801E454FF4F11830083329782E2B2
:103B200094E09583848389E791E09183808368EBB7
:103B300074E0CE0107960E940614BE01695F7F4FB4
:103B4000CE0101960E94011162E274E0CE0101965D
:103B50000E94E3106FE174E00E94E31062E274E0FF
:103B60000E94E3100E94DF18CE0101960E94FC1013
:103B7000CE0107960E94FC1081EC94E00E941E1278
:103B8000F801EE53FF4F118300836801F0ECCF0E74
:103B9000D11C84E394E0D60115969C938E931497E0
:103BA00089E891E011969C938E9319961C921E922F
:103BB000189768EB74E0CE0107960E940614BE01C8
:103BC000695F7F4FCE0101960E94011164E374E0AA
:103BD000CE0101960E94E3106FE174E00E94E310B1
:103BE00064E374E00E94E3100E94DF18CE010196A6
:103BF0000E94FC10CE0107960E94FC1081EC94E01C
:103C00000E941E1286E190E00E94B0285C01FC0137
:103C100012821382148215821682178210861186F0
:103C2000138612861586148629EA422E21E0522E2A
:103C300051824082138A128A158A8CE090E00E9499
:103C4000B028FC011182108284ED92E1938382837B
:103C5000D582C48216821782108611861386128638
:103C6000D5015196FC93EE9350971F96FC93EE93DB
:103C70001E97F601B782A68254963C923C96118319
:103C800000835801FAECAF0EB11C8FE394E0D5012C
:103C900015969C938E93149787EB91E011969C93C5
:103CA0008E938FEF18968C93189719968C9368EBD8
:103CB00074E0CE0107960E940614BE01695F7F4F33
:103CC000CE0101960E9401116FE374E0CE010196CE
:103CD0000E94E3106FE174E00E94E3106FE374E070
:103CE0000E94E3100E94DF18CE0101960E94FC1092
:103CF000CE0107960E94FC1081EC94E00E941E12F7
:103D000086E190E00E94B0286C01FC0112821382CF
:103D100014821582168217821086118613861286E7
:103D20001586148651824082138A128A158A8CE085
:103D300090E00E94B028FC011182108286E79CE08E
:103D400093838283B582A48216821782108611869D
:103D500013861286D6015196FC93EE9350971F96C8
:103D6000FC93EE931E97F501D782C68254963C923F
:103D700068EB74E0CE0107960E940614BE01695FED
:103D80007F4FCE0101960E94011162E574E0CE01E1
:103D900001960E94E3100E94DF18CE0101960E9456
:103DA000FC10CE0107960E94FC1081EC94E00E946A
:103DB0001E121093BF040093BE0468EB74E0CE01A2
:103DC00007960E940614BE01695F7F4FCE010196DF
:103DD0000E9401116DE574E0CE0101960E94E3108E
:103DE0000E94DF18CE0101960E94FC10CE010796BA
:103DF0000E94FC1081EC94E00E941E1260E081E1C0
:103E00000E944C191093BD040093BC0460E070E064
:103E1000C8010E94D20C0E941E1AD8016D937D9396
:103E20008D939C931397D701ED91FC910480F581BC
:103E3000E02D40E050E0BA01C701099560E070E074
:103E4000C4010E94F414F3019182808238E1C32EF0
:103E50004EE0D42EE090BE04F090BF040E941E1AE3
:103E6000D7010D911D912D913C914B015C01801A60
:103E7000910AA20AB30A09F4F6C0F70160837183BC
:103E8000828393830481158144244A94542C320103
:103E9000498E5A8E6B8E7C8EA50194012F5F3F4F09
:103EA0004F4F5F4F298B3A8B4B8B5C8B0115110564
:103EB00009F473C0D8011C968D919C911D970197B0
:103EC00009F065C012964D905D906D907C901597AD
:103ED0004D8A5E8A6F8A788E84149504A604B7048E
:103EE000E0F116964D905D906D907C9019974D86FF
:103EF0005E866F86788AB301A2014D885E886F88DE
:103F0000788C4419550966097709480D591D6A1DB1
:103F10007B1D8D859E85AF85B889480E591E6A1E0A
:103F20007B1E4D865E866F86788A84149504A6046F
:103F3000B70420F049885A886B887C88D80112968B
:103F40004D925D926D927C921597D801ED91FC9106
:103F50000480F581E02DC8010995F80182819381E3
:103F6000A481B58188199909AA09BB098283938321
:103F7000A483B583498C5A8C6B8C7C8C84159505F5
:103F8000A605B70520F4898F9A8FAB8FBC8FD80117
:103F90001A960D911C911B9789CFD7011496ED911C
:103FA000FC91159760E070E03097B9F192858385B8
:103FB000248535852230310561F5158614861386F2
:103FC0001286D70114964D915C91159716962D91F6
:103FD0003C911797E417F50779F414969C9314977E
:103FE00015968C931597E217F307A1F416969C93F8
:103FF000169717968C930EC0DB011A969C931A970E
:104000001B968C93E217F30729F4F70177836683F5
:1040100001C0BF01E92FF82FC7CF298D3A8D4B8DF5
:104020005C8D2230310541055105E0F0A8950FB6B1
:10403000F894A895C09260000FBED092600083B73C
:10404000817F83BFF89483B7816083BF85B7806623
:1040500085BF85B78F7D85BF7894889583B78E7F20
:1040600083BF01C0A8950E944012F4CECF93DF9386
:10407000EC010E9459012AE037ED43E25CE30E9423
:10408000F12387FD04C0CE010E94590104C06AE0FB
:1040900077ED83E29CE36CA37DA38EA39FA381E0D5
:1040A000DF91CF91089544970C9436208F929F9280
:1040B000AF92BF92CF92DF92EF92FF920F931F9336
:1040C000CF93DF93CDB7DEB72C970FB6F894DEBF52
:1040D0000FBECDBF8C010E9459012AE037ED43E2AB
:1040E0005CE30E94F12387FD06C0C8010E945901CC
:1040F0006B017C0108C08AE0C82E87EDD82E83E2D0
:10410000E82E8CE3F82ED80194968D909D90AD907A
:10411000BC909797A5019401C701B6010E94F123B5
:1041200087FD22C026E636E646E85FE3C501B40116
:104130000E9457249B01AC01C701B6010E94612671
:10414000181694F023E333E343E35FE3C701B601BA
:104150000E946126181694F5A7019601C501B401C5
:104160000E94F12387FF2AC068EB74E0CE0101961C
:104170000E940614BE016F5F7F4FCE0107960E941A
:10418000011164E874E0CE0107960E94E310B701C4
:10419000A6010E9445100E94DF18CE0107960E94DA
:1041A000FC10CE0101960E94FC1081EC94E00E946C
:1041B0001E12F801C4A2D5A2E6A2F7A22AE037EDAA
:1041C00043E25CE3D80194966D917D918D919C9131
:1041D00097970E94F123811106C0D8019296ED9124
:1041E000FC91939709952C960FB6F894DEBF0FBEFD
:1041F000CDBFDF91CF911F910F91FF90EF90DF9096
:10420000CF90BF90AF909F908F90089544970C945B
:104210005620E1ECF4E01382128288EE93E0A0E0F5
:10422000B0E084839583A683B78389EC91E0918382
:10423000808385EC90E09587848784EC90E0978775
:10424000868780EC90E0918B808B81EC90E0938B63
:10425000828B82EC90E0958B848B86EC90E0978B40
:10426000868B118E128E138E148E0895EF920F93FB
:104270001F93CF93DF93E80147FD02C034E001C0F4
:1042800034E1E42F440FFF0BF7FF03C0F195E195F4
:10429000F109E32E022F2E2FAE010E947B21CE01C9
:1042A000DF91CF911F910F91EF900895BB274A3076
:1042B00031F4992322F4BDE2909581959F4F0C949F
:1042C0006221BB27FB015527AA27880F991FAA1F28
:1042D000A41710F0A41B83955051B9F7A05DAA3321
:1042E00008F0A95DA193009779F7B111B1931192EC
:1042F000CB010C94E1234F925F926F927F929F9239
:10430000AF92BF92CF92DF92EF92FF920F931F93E3
:10431000CF93DF93CDB7DEB729970FB6F894DEBF02
:104320000FBECDBF6A01122FB02E2BE3201720F055
:10433000FF24F394F00E02C0BCE3FB2E0F2D27E008
:10434000AE014F5F5F4F0E940923AC018981982F16
:104350009970913031F0E1FC06C0E0FE06C090E2B9
:1043600005C09DE203C09BE201C090E0EE2DE0712C
:1043700083FF3CC0911102C083E001C084E081173B
:1043800018F4212F281B01C020E0E1110BC0F60119
:10439000822F30E2882319F031938150FBCFC20E77
:1043A000D11C20E0992329F0D6019C93F601319687
:1043B0006F01C6010396E2FE0AC03EE4D6013C93BB
:1043C00041E411964C93119712963C9306C03EE639
:1043D000F601308341E641833283FC01322F40E213
:1043E000332309F442C041933150FACF82FF44C0D5
:1043F000911102C083E001C084E0811718F4212FDD
:10440000281B01C020E0E1110BC0F601822F30E231
:10441000882319F031938150FBCFC20ED11C20E0CC
:10442000992329F0D6019C93F60131966F01C601BC
:104430000396E2FE0BC039E4D6013C933EE41196AC
:104440003C93119736E412963C9307C039E6F60187
:1044500030833EE6318336E63283FC01322F40E280
:10446000332319F041933150FBCFFC01E20FF11DD2
:1044700010828EEF9FEFB7C0F1E0911101C0F0E024
:104480006F2F70E01416150624F49A012F5F3F4F2A
:1044900002C021E030E0260F371FBB2029F06B2D32
:1044A00070E06F5F7F4F02C060E070E0260F371F43
:1044B000612F70E0261737071CF4121B212F01C053
:1044C00020E03E2D387159F4D601322F60E23323BB
:1044D00019F06D933150FBCFC20ED11C20E0FF23A9
:1044E00031F0D6019C93B6016F5F7F4F6B01E111F4
:1044F0000BC0F601922F30E3992319F031939150BC
:10450000FBCFC20ED11C20E09F2D940F3A81782F53
:104510007071A72E84FF03C0313309F4915019162E
:1045200024F4993018F098E001C091E0E42F852F31
:1045300057FF02C0E0E080E06E2F782FE0E0F0E06F
:10454000AEE29A2E3A01691A71082A01461A570AF0
:104550000B2D10E01195019511096F3F8FEF780732
:1045600029F4D6019C92C60101966C0146175707A3
:1045700084F0661677066CF47F01E40CF51CA1E06C
:10458000B0E0AC0FBD1FEA0EFB1ED7011196BC9028
:1045900002C090E3B92E615071093196C6010196AF
:1045A0007C016017710724F0D601BC926C01D5CF55
:1045B0006417750741F4363320F4353321F4A11024
:1045C00002C081E3B82EF601B082F701822F90E29B
:1045D000882319F091938150FBCFF701E20FF11D71
:1045E000108280E090E029960FB6F894DEBF0FBEEF
:1045F000CDBFDF91CF911F910F91FF90EF90DF9092
:10460000CF90BF90AF909F907F906F905F904F90B2
:104610000895283008F027E03327DA01990F311D7B
:1046200087FD916000966105710539F432602E5F57
:104630003D9330E32A95E1F708959F3F30F08038AD
:104640007105610509F03C5F3C5F3D93913008F0D6
:104650008068911DDF93CF931F930F93FF92EF928A
:10466000192F987F9695E92F96959695E90FFF2734
:10467000EE59FE4F99273327EE24FF24A701E701C7
:1046800005900894079428F4360FE71EF81E491F7A
:10469000511D660F771F881F991F0694A1F705907B
:1046A000079428F4E70EF81E491F561FC11D770F07
:1046B000881F991F661F0694A1F70590079428F498
:1046C000F80E491F561FC71FD11D880F991F661F5F
:1046D000771F0694A1F70590079420F4490F561F01
:1046E000C71FD81F990F661F771F881F0694A9F749
:1046F00084911095177041F0D695C79557954795B9
:10470000F794E7941A95C1F7E8E0F1E06894159002
:10471000159135916591959105907FE27395E1181A
:10472000F10A430B560BC90BD009C0F7E10CF11E7F
:10473000431F561FC91FD01D7EF4703311F48A9594
:10474000E6CFE894015030F0080F0AF40027021772
:1047500008F4202F2395022F7A3328F079E37D93F4
:104760002A95E9F710C07D932A9589F606949795C6
:104770006795379517951794E118F10A430B560B77
:10478000C90BD00998F023957E9173957A3308F080
:1047900070E37C932013B8F77E9170617D9330F0C5
:1047A000839571E37D9370E32A95E1F71124EF90EF
:1047B000FF900F911F91CF91DF91992787FD9095E1
:1047C0000895DC01FC01672F71917723E1F732979F
:1047D00004C07C916D9370836291AE17BF07C8F3DC
:1047E00008950E94332408F481E00895E89409C0F4
:1047F00097FB3EF490958095709561957F4F8F4F14
:104800009F4F9923A9F0F92F96E9BB279395F69529
:10481000879577956795B795F111F8CFFAF4BB0FA7
:1048200011F460FF1BC06F5F7F4F8F4F9F4F16C00B
:10483000882311F096E911C0772321F09EE8872F95
:10484000762F05C0662371F096E8862F70E060E051
:104850002AF09A95660F771F881FDAF7880F9695CA
:10486000879597F90895990F0008550FAA0BE0E86E
:10487000FEEF16161706E807F907C0F01216130622
:10488000E407F50798F0621B730B840B950B39F462
:104890000A2661F0232B242B252B21F408950A26C8
:1048A00009F4A140A6958FEF811D811D08950E94F6
:1048B0006A240C94DB240E94CD2438F00E94D42476
:1048C00020F0952311F00C94C4240C94CA241124D4
:1048D0000C940F250E94EC2470F3959FC1F3950F63
:1048E00050E0551F629FF001729FBB27F00DB11D74
:1048F000639FAA27F00DB11DAA1F649F6627B00D04
:10490000A11D661F829F2227B00DA11D621F739FEC
:10491000B00DA11D621F839FA00D611D221F749FFA
:104920003327A00D611D231F849F600D211D822F41
:10493000762F6A2F11249F5750409AF0F1F0882368
:104940004AF0EE0FFF1FBB1F661F771F881F915095
:104950005040A9F79E3F510580F00C94C4240C945C
:104960000F255F3FE4F3983ED4F3869577956795DE
:10497000B795F795E7959F5FC1F7FE2B880F911DBF
:104980009695879597F9089597F99F6780E870E065
:1049900060E008959FEF80EC089500240A941616B5
:1049A000170618060906089500240A94121613061D
:1049B000140605060895092E0394000C11F48823AB
:1049C00052F0BB0F40F4BF2B11F460FF04C06F5FC7
:1049D0007F4F8F4F9F4F089557FD9058440F551F9D
:1049E00059F05F3F71F04795880F97FB991F61F071
:1049F0009F3F79F087950895121613061406551FE8
:104A0000F2CF4695F1DF08C0161617061806991F53
:104A1000F1CF86957105610508940895E894BB2748
:104A200066277727CB0197F908952F923F924F92EF
:104A30005F926F927F928F929F92AF92BF92CF922E
:104A4000DF92EF92FF920F931F93CF93DF93CDB737
:104A5000DEB7CA1BDB0B0FB6F894DEBF0FBECDBFAF
:104A600009942A88398848885F846E847D848C8480
:104A70009B84AA84B984C884DF80EE80FD800C8189
:104A80001B81AA81B981CE0FD11D0FB6F894DEBF6C
:104A90000FBECDBFED0108955058BB27AA270E9435
:104AA00064250C94DB240E94CD2438F00E94D42489
:104AB00020F039F49F3F19F426F40C94CA240EF424
:104AC000E095E7FB0C94C424E92F0E94EC2458F3F2
:104AD000BA17620773078407950720F079F4A6F5E3
:104AE0000C940E250EF4E0950B2EBA2FA02D0B0181
:104AF000B90190010C01CA01A0011124FF27591B23
:104B000099F0593F50F4503E68F11A16F040A22F28
:104B1000232F342F4427585FF3CF46953795279599
:104B2000A795F0405395C9F77EF41F16BA0B620B98
:104B3000730B840BBAF09150A1F0FF0FBB1F661FDF
:104B4000771F881FC2F70EC0BA0F621F731F841F22
:104B500048F4879577956795B795F7959E3F08F048
:104B6000B0CF9395880F08F09927EE0F979587950A
:104B700008950E94CD250C94DB240E94D42458F083
:104B80000E94CD2440F029F45F3F29F00C94C42406
:104B900051110C940F250C94CA240E94EC2468F344
:104BA0009923B1F3552391F3951B550BBB27AA27E6
:104BB00062177307840738F09F5F5F4F220F331F20
:104BC000441FAA1FA9F335D00E2E3AF0E0E832D0E8
:104BD00091505040E695001CCAF72BD0FE2F29D0EB
:104BE000660F771F881FBB1F261737074807AB07BD
:104BF000B0E809F0BB0B802DBF01FF2793585F4F32
:104C00003AF09E3F510578F00C94C4240C940F2583
:104C10005F3FE4F3983ED4F3869577956795B79513
:104C2000F7959F5FC9F7880F911D9695879597F91E
:104C30000895E1E0660F771F881FBB1F6217730797
:104C40008407BA0720F0621B730B840BBA0BEE1FAC
:104C500088F7E09508950E9432266894B1110C946B
:104C60000F2508950E94F42488F09F5798F0B92FDB
:104C70009927B751B0F0E1F0660F771F881F991F91
:104C80001AF0BA95C9F714C0B13091F00E940E2500
:104C9000B1E008950C940E25672F782F8827B85F10
:104CA00039F0B93FCCF3869577956795B395D9F7E9
:104CB0003EF490958095709561957F4F8F4F9F4FF3
:104CC00008950E94332408F48FEF0895FA01EE0F3F
:104CD000FF1F309621053105A1F16115710561F4C1
:104CE0008038BFE39B0749F168949038810561F0F3
:104CF0008038BFEF9B0741F099234AF5FF3FE1055C
:104D00003105210519F1E8940894E795D901AA2302
:104D100029F4AB2FBE2FF85FD0F310C0FF5F70F403
:104D2000A695E0F7F73950F019F0FF3A38F49F777D
:104D30009F930DD00F9007FC9058089546F00C9467
:104D4000CA2460E070E080E89FE308954FE79F7712
:104D50005F934F933F932F930E94A8272F913F91EA
:104D60004F915F910E9457240C94C6269F930E94F6
:104D700021270F9007FCEE5F0C944A2729F416F0C8
:104D80000C94C4240C940E250C94CA240E94F42480
:104D9000A8F39638A0F707F80F92E8942BE33AEAC5
:104DA00048EB5FE70E946D240F920F920F924DB770
:104DB0005EB70F920E94F027E8E6F0E00E94F82626
:104DC0004F915F91EF91FF91E595EE1FFF1F49F025
:104DD000FE57E0684427EE0F441FFA95E1F741952E
:104DE000550B0E946A270F9007FE0C945E270895CA
:104DF000DF93CF931F930F93FF92EF92DF927B018C
:104E00008C01689406C0DA2EEF010E946A24FE012C
:104E1000E894A5912591359145915591A6F3EF011F
:104E20000E946425FE019701A801DA9469F7DF90DA
:104E3000EF90FF900F911F91CF91DF9108950C9407
:104E4000CA240E94F424D8F3E894E0E0BB279F57DB
:104E5000F0F02AED3FE049EC06C0EE0FBB0F661FF5
:104E6000771F881F28F0B23A62077307840728F07B
:104E7000B25A620B730B840BE3959A9572F78038E4
:104E800030F49A95BB0F661F771F881FD2F79048A2
:104E90000C942628EF93E0FF07C0A2EA2AED3FE03A
:104EA00049EC5FEB0E9464250E94DB240F90039481
:104EB00001FC9058E0E9F0E00C9432289B01AC0131
:104EC00060E070E080E89FE30C94B9250C94C42462
:104ED0000C9424280E94F424D8F39923C9F3940F46
:104EE000511DA3F39150504094F059F0882332F0B3
:104EF000660F771F881F91505040C1F79E3F5105A4
:104F00002CF7880F911D9695879597F908955F3F27
:104F1000ACF0983E9CF0BB27869577956795B79542
:104F200008F4B1609395C1F7BB0F58F711F460FF17
:104F3000E8CF6F5F7F4F8F4F9F4FE3CF0C940F25CC
:104F400016F00C9424280C94CA2468940C94C4245D
:104F50000E94F424A8F39923C1F3AEF3DF93CF9317
:104F60001F930F93FF92C92FDD2788232AF02197E3
:104F7000660F771F881FDAF720E030E040E85FEB2C
:104F80009FE3883920F0803E38F021968F770E9489
:104F90004D25EEEAF0E004C00E944D25EBEDF0E077
:104FA0000E94F8268B01BE01EC01FB2E6F577109A0
:104FB0007595771F880B990B0E94F82328E132E73B
:104FC00041E35FE30E946A24AF2D9801AE01FF9098
:104FD0000F911F91CF91DF910E9464250C94DB24E7
:104FE000FA01DC01AA0FBB1F9B01AC01BF5728F4DB
:104FF000222733274427507820C0B75190F4AB2F95
:105000000024469537952795011CA395D2F30020DF
:1050100071F0220F331F441FB395DAF30ED00C94B6
:105020004C2561307105A0E88A07B94630F49B0130
:10503000AC016627772788279078309621F0208367
:1050400031834283538308959F3F31F0915020F480
:10505000879577956795B795880F911D9695879554
:1050600097F908959F938F937F936F93FF93EF9397
:105070009B01AC010E945724EF91FF910E94F826FA
:105080002F913F914F915F910C94572487FB082EED
:10509000062687FD819567FD61950E948A280EF49A
:1050A000919507FC8195089597FB072E16F40094BF
:1050B00007D077FD09D00E94962807FC05D03EF462
:1050C000909581959F4F0895709561957F4F0895B4
:1050D000A1E21A2EAA1BBB1BFD010DC0AA1FBB1FFC
:1050E000EE1FFF1FA217B307E407F50720F0A21B6E
:1050F000B30BE40BF50B661F771F881F991F1A94DB
:1051000069F760957095809590959B01AC01BD0104
:10511000CF010895991B79E004C0991F961708F0F4
:10512000961B881F7A95C9F780950895AA1BBB1B0B
:1051300051E107C0AA1FBB1FA617B70710F0A61B97
:10514000B70B881F991F5A95A9F780959095BC01B8
:10515000CD010895EE0FFF1F0590F491E02D099405
:10516000CF93DF938230910510F482E090E0E091DC
:105170006905F0916A0520E030E0C0E0D0E03097AA
:1051800011F14081518148175907C0F0481759075C
:1051900061F482819381209719F09B838A832BC0CD
:1051A00090936A058093690526C02115310519F091
:1051B0004217530718F49A01BE01DF01EF01028084
:1051C000F381E02DDCCF2115310509F1281B390BC6
:1051D0002430310590F412968D919C9113976115AE
:1051E000710521F0FB019383828304C090936A05CB
:1051F00080936905FD01329644C0FD01E20FF31F63
:1052000081939193225031092D933C933AC0209180
:10521000670530916805232B41F4209106013091F8
:1052200007013093680520936705209104013091B0
:1052300005012115310541F42DB73EB74091080114
:1052400050910901241B350BE0916705F091680529
:10525000E217F307A0F42E1B3F0B2817390778F04D
:10526000AC014E5F5F4F2417350748F04E0F5F1FAC
:1052700050936805409367058193919302C0E0E0E5
:10528000F0E0CF01DF91CF9108950F931F93CF935B
:10529000DF93009709F48CC0FC01329713821282CD
:1052A0000091690510916A050115110581F42081AD
:1052B0003181820F931F209167053091680528176F
:1052C000390779F5F0936805E093670571C0D80157
:1052D00040E050E0AE17BF0750F412962D913C917C
:1052E0001397AD012115310509F1D901F3CF9D01C6
:1052F000DA013383228360817181860F971F8217C1
:10530000930769F4EC0128813981260F371F2E5F3E
:105310003F4F318320838A819B8193838283452BF6
:1053200029F4F0936A05E093690542C01396FC9353
:10533000EE931297ED01499159919E01240F351F6B
:10534000E217F30771F480819181840F951F029613
:1053500011969C938E938281938113969C938E9346
:105360001297E0E0F0E0D80112968D919C9113978E
:10537000009719F0F8018C01F6CF8D919C9198015E
:105380002E5F3F4F820F931F209167053091680574
:105390002817390769F4309729F410926A0510929A
:1053A000690502C013821282109368050093670595
:1053B000DF91CF911F910F910895A0E0B0E0E3EE4F
:1053C000F9E20C941925EC01009721F4CB010E941D
:1053D000B028B8C0FC01E60FF71F9C01225031092C
:1053E000E217F30708F4ACC0D9010D911C91119795
:1053F00006171707B0F00530110508F49FC0C80163
:1054000004978617970708F499C002501109061BE4
:10541000170B019311936D937C93CF010E94452943
:105420008DC05B01A01AB10A4C01800E911EA091A3
:105430006905B0916A0540E050E0E12CF12C10972D
:1054400009F44AC0A815B905D1F56D907C90119763
:10545000630182E0C80ED11CCA14DB0480F1A301F1
:105460004A195B096A0182E0C80ED11C1296BC90F1
:1054700012971396AC91B5E0CB16D10440F0B282EE
:10548000A38351834083D9016D937C930AC00E5F3F
:105490001F4FC301800F911FF90191838083EB2D72
:1054A000FA2FE114F10431F0D7011396FC93EE9337
:1054B000129744C0F0936A05E09369053FC08D914F
:1054C0009C9111974817590708F4AC017D01129679
:1054D0000D90BC91A02DB3CF809167059091680588
:1054E00088159905E1F446175707C8F4809104011F
:1054F00090910501009741F48DB79EB74091080146
:1055000050910901841B950BE817F907C8F4F09333
:105510006805E0936705F901718360830FC0CB01D3
:105520000E94B0287C01009759F0A801BE010E949A
:10553000AC2ACE010E944529C70104C0CE0102C099
:1055400080E090E0CDB7DEB7EEE00C94352581E049
:1055500090E0F8940C94BC2AFB01DC0102C001909D
:105560000D9241505040D8F70895FB01DC010190A5
:0C5570000D920020E1F70895F894FFCFA1
:10557C003F113F1100006B058000626F12033B0A64
:10558C00D7A33CCDCC4C3E0000003F0000403F0078
:10559C0000803F00000000E202BF1236205620ECD3
:1055AC00FF000053200C02062100000000DB0F2A34
:1055BC00095306A70100000000D20D28092C09167A
:1055CC00020000000075144114F5160000000035AF
:1055DC00060C02A80700000000C313F414C512AA9D
:1055EC0014B418D01200000000FC0D660F10021C41
:1055FC0002A70D240900000000DB17551610026BE2
:10560C0018B318CE12000000001402120210020F80
:10561C0002A80D260900000000FF010C02AD018755
:10562C000D9D0D0000000014021202680E5A02B506
:10563C0018D212746200000000D71140116F111EB5
:10564C0012A0117E1192113A3A6F6E457869744D21
:10565C006F64650054656D702E20004B70202A20FD
:10566C006572726F7220004B69202A206572726F0E
:10567C0072496E74656772616C20004B64202A203D
:10568C00646572200054656D70504944436F6E74AC
:10569C00726F6C5661726961626C65200063757221
:1056AC0072656E74546F54656D7065726174757249
:1056BC0065546172676574200070776D416D6F750C
:1056CC006E743A20004C443A3A646967506F7457D0
:1056DC0072697465200042746E3A3A6F6E4275744A
:1056EC00746F6E46616C6C00427574746F6E2069D9
:1056FC00732072657475726E696E67204C4F5720FB
:10570C0066726F6D204C4F570042746E3A3A6F6E52
:10571C00427574746F6E5269736500427574746F60
:10572C006E2069732072657475726E696E6720489D
:10573C004947482066726F6D204849474800414CE4
:10574C00443A3A736574506F74656E74696F6D6525
:10575C007465724C6576656C20004F4E004F464662
:10576C00004C443A3A7377697463684C696768749F
:10577C00537461747573200020636F756C646E27AD
:10578C00742068616E646C6520696E746572616307
:10579C0074696F6E2E200020636C69636B732C2010
:1057AC000020686F6C6420737465707300476C68BC
:1057BC00743A3A656E7465724D6F646520002063AF
:1057CC006F756C646E27742068616E646C65206DF7
:1057DC0073672000416C726561647920736875741D
:1057EC0074696E6720646F776E00426174742E204A
:1057FC00697320656D70747900476C68743A3A73FC
:10580C007769746368506F77657220002D2D2D0AAF
:10581C004845524520474E554C494748540A2D2D72
:10582C002D002D2D2D0A474F4F444259450A2D2D41
:10583C002D003A3A6F6E456E7465724D6F6465005B
:10584C002076616C7565200073657475702829006D
:10585C00496E73742E2042746E00496E73742E2040
:10586C00504C4200496E73742E204C4400496E73A8
:10587C00742E20414C4400496E73742E2055494DB2
:10588C005400506F7765724F66664D6F6465003AD1
:10589C003A00436F6E7374616E744C696768744D33
:1058AC006F6465005374726F62654D6F6465005070
:1058BC006172616D65746572436865636B4D6F648D
:1058CC006500496E73742E20476C687400476C68D1
:1058DC00743A3A73657475700055494D543A3A4FA1
:1058EC006E53746F700055494D543A3A4F6E537461
:1058FC00617274005570642E20626172654C65761D
:10590C00656C54682E20007374726F626520747914
:10591C007065200042746E20696E746572616374E8
:0A592C00696F6E2E20000D0A0000C6
:00000001FF
