:100000000C942F010C9443160C941C160C9457015D
:100010000C9457010C9457010C94C2160C94570180
:100020000C9457010C9457010C9457010C945701F0
:100030000C9457010C9457010C9457010C945701E0
:100040000C94E21A0C9457010C9490160C946A16B6
:100050000C9457010C9457010C9457010C945701C0
:100060000C9457010C94570107634236B79BD8A7ED
:100070001A39685618AEBAAB558C1D3CB7CC5763CD
:10008000BD6DEDFD753EF6177231BF000000803F7B
:1000900005A84CCDB2D44EB93836A9020C50B9914E
:1000A0008688083CA6AAAA2ABE000000803F080055
:1000B0000000BE922449123EABAAAA2ABECDCCCCE7
:1000C0004C3E00000080BEABAAAAAA3E0000000081
:1000D000BF000000803F0000000000084178D3BB53
:1000E0004387D1133D190E3CC3BD4282AD2B3E6800
:1000F000EC8276BED98FE1A93E4C80EFFFBE01C4F1
:10010000FF7F3F000000000000407A10F35A00A07B
:10011000724E18090010A5D4E80000E876481700D0
:1001200000E40B54020000CA9A3B000000E1F50510
:10013000000080969800000040420F000000A0865A
:1001400001000000102700000000E803000000008C
:100150006400000000000A00000000000100000030
:1001600000002C76D888DC674F0823DFC1DFAE594A
:10017000E1B1B796E5E3E453C63AE651997696E8DD
:10018000E6C28426EB898C9B62ED407C6FFCEFBC61
:100190009C9F40F2BAA56FA5F490055A2AF75C938C
:1001A0006B6CF9676DC11BFCE0E40D47FEF520E6C2
:1001B000B500D0ED902E0300943577050080841EA5
:1001C000080000204E0A000000C80C333333330F00
:1001D000986E12831141EF8D2114893BE65516CF9D
:1001E000FEE6DB18D1844B381BF77C1D901DA4BBA9
:1001F000E424203284725E228100C9F124ECA1E55E
:100200003D2700000000240027002A000000000015
:10021000250028002B0000000000230026002900F4
:10022000040404040404040402020202020203039C
:1002300003030303010204081020408001020408A4
:100240001020010204081020000000080002010034
:10025000000304070000000000000000EF2011244C
:100260001FBECFEFD8E0DEBFCDBF25E0A4EBB4E0EA
:1002700001C01D92A536B207E1F714E0A0E0B1E09D
:10028000E8E4F5E502C005900D92A43BB107D9F76B
:1002900011E0CFE2D1E004C02197FE010E94902836
:1002A000CE32D107C9F70E942C1B0C94A22A0C94C1
:1002B0000000CF92DF92EF92FF92DC011E968D91AB
:1002C0009C911F97DC01ED91FC910190F081E02D54
:1002D00009956B017C0120E030E0A9010E94D72341
:1002E000882319F12DEC3CEC4CE45DE3C701B60129
:1002F0000E94D72387FD1DC02DEC3CEC4CEC5DE348
:10030000C701B6010E94D72387FD18C02AE939E941
:1003100049E95EE3C701B6010E94D72387FD13C0F8
:1003200060E070E080E89FE312C060E070E0CB0125
:100330000EC06DEC7CEC8CE49DE309C06DEC7CECB4
:100340008CEC9DE304C060E070E080E09FE3FF90F0
:10035000EF90DF90CF900895CF93DF93EC010E9450
:1003600059012AE037ED43E25CE30E94D72387FD81
:1003700004C0CE010E94590104C06AE077ED83E217
:100380009CE36C8B7D8B8E8B9F8B81E0DF91CF917B
:100390000895FC01648175818681978108950F938A
:1003A0001F93CF93DF93EC018D89882319F08C89FB
:1003B0008823D9F10A891B89D8011296ED91FC9105
:1003C000139714968D919C911597309739F0099554
:1003D000F801668377838087918704C0D801ED9107
:1003E000FC910995EA89FB894A815B816C817D8159
:1003F00086819781A085B185840F951FA61FB71FA1
:100400000197A109B1098A839B83AC83BD8382854F
:100410009385009729F48C89882329F08E859F8500
:100420009B8B8A8B09C081E08D8B8FEF9FEFDC0166
:100430008A839B83AC83BD83DF91CF911F910F9102
:100440000895FC01158A86859785938B828B12828D
:1004500013821482158281E008950895089581E041
:100460000895089580E0089580E0089580E008955B
:10047000FC0163A574A585A596A508950F931F9308
:10048000CF93DF93CDB7DEB72C970FB6F894DEBFCE
:100490000FBECDBFFC010481158162EB74E0CE017B
:1004A00001960E94C214BE016F5F7F4FCE01079676
:1004B0000E946411B801CE0107960E94461161EDB9
:1004C00071E00E9446110E949719CE0107960E9482
:1004D0005F11CE0101960E945F118BEB94E00E94A8
:1004E00081122C960FB6F894DEBF0FBECDBFDF9100
:1004F000CF911F910F910895EF92FF920F931F9349
:10050000CF93DF93CDB7DEB72C970FB6F894DEBF4D
:100510000FBECDBF8C01FC01E480F58062EB74E07E
:10052000CE0101960E94C214BE016F5F7F4FCE01C3
:1005300007960E946411B701CE0107960E944611EA
:1005400061ED71E00E9446110E949719CE01079655
:100550000E945F11CE0101960E945F118BEB94E027
:100560000E948112F801868197810E9498172C962B
:100570000FB6F894DEBF0FBECDBFDF91CF911F91B4
:100580000F91FF90EF9008958F929F92AF92BF923C
:10059000CF92DF92EF92FF920F931F93CF93DF934F
:1005A000CDB7DEB72C970FB6F894DEBF0FBECDBF28
:1005B0008C010E9459016B017C01D80154968D90E9
:1005C0009D90AD90BC905797A50194010E94D723B0
:1005D00087FD22C026E636E646E85FE3C501B401A2
:1005E0000E943D249B01AC01C701B6010E94472631
:1005F000181694F023E333E343E35FE3C701B60146
:100600000E944726181694F5A5019401C701B6016A
:100610000E944726181654F562EB74E0CE0101964D
:100620000E94C214BE016F5F7F4FCE0107960E94E9
:1006300064116EED71E0CE0107960E944611B7017C
:10064000A6010E94A8100E949719CE0107960E9449
:100650005F11CE0101960E945F118BEB94E00E9426
:100660008112F801C48AD58AE68AF78A2AE037ED32
:1006700043E25CE3D80154966D917D918D919C91FC
:1006800057970E94D72318166CF08AE097EDA3E2E3
:10069000BCE3F801848B958BA68BB78B0088F1891E
:1006A000E02D09952C960FB6F894DEBF0FBECDBF96
:1006B000DF91CF911F910F91FF90EF90DF90CF903E
:1006C000BF90AF909F908F900895CF92DF92EF925E
:1006D000FF920F931F93CF93DF938C01FC018281D4
:1006E0000E949A1AEC01F80182810E949A1A8C0FDA
:1006F0009D1F97FD0196BC0175956795072E000C0F
:10070000880B990B0E94DE236B017C01F801838129
:10071000682F70E080E090E00E94DE239B01AC0136
:100720006AE078E280EA9BE30E949F259B01AC018E
:10073000C701B6010E943D24DF91CF911F910F9117
:10074000FF90EF90DF90CF9008954F925F926F925D
:100750007F928F929F92AF92BF92CF92DF92EF9251
:10076000FF92CF93DF93EC010E946503C884D98484
:10077000EA84FB84A70196010E94D72387FD12C05B
:10078000CE010E946503CC80DD80EE80FF80A70152
:1007900096010E94472618162CF0CE010E94650390
:1007A0006B017C0188889988AA88BB88A50194017F
:1007B000C701B6010E94472687FD31C04C845D8485
:1007C0006E847F84A3019201C701B6010E94322585
:1007D0006B017C01A501940160E070E080E89FE37B
:1007E0000E9432259B01AC01C701B6010E943D2445
:1007F0006B017C01A30192016C817D818E819F81BF
:100800000E9432259B01AC01C701B6010E949F25C1
:100810009B01AC01C501B4010E9433251EC0488470
:1008200059846A847B84A3019201C701B6010E94A6
:100830003225A50194010E943D246B017C01A30196
:1008400092016C857D858E859F850E9432259B0156
:10085000AC01C701B6010E949F25DF91CF91FF90A7
:10086000EF90DF90CF90BF90AF909F908F907F9050
:100870006F905F904F9008950F931F93CF93DF93E6
:100880008C01FC0182A50E949A1AEC01F80182A554
:100890000E949A1A8C0F9D1FBC01990F880B990B0F
:1008A0000E94DE2320E030E040E05FE30E943D2430
:1008B00020E030EC4FE754E40E949F2520E030E038
:1008C00040EA50E40E943D2420E030E048EC52E44D
:1008D0000E943D2420E030E048E452E40E943225AA
:1008E000DF91CF911F910F9108954F925F926F9278
:1008F0007F928F929F92AF92BF92CF92DF92EF92B0
:10090000FF920F931F93CF93DF93CDB7DEB764971A
:100910000FB6F894DEBF0FBECDBF8C01DC0152963E
:10092000ED90FC905397D70114968D919D910D9069
:10093000BC91A02D898B9A8BAB8BBC8B2DEC3CECA6
:100940004CE45EE3BC01CD010E94472618160CF072
:1009500009C2C7010E943C046B017C0162EB74E098
:10096000CE0107960E94C214BE01695F7F4FCE017F
:1009700001960E94641161EF71E0CE0101960E9420
:100980004611B701A6010E94A8100E949719CE0136
:1009900001960E945F11CE0107960E945F118BEBBA
:1009A00094E00E948112A701960160E070E088E463
:1009B00092E40E9432256B017C0120E030E040E2AD
:1009C00051E40E943D24F80120A131A142A153A18C
:1009D0000E9433252B013C0120E030E0A9010E9458
:1009E000D72387FF11C020E030E04AEF53ECC3016A
:1009F000B2010E9447261816BCF0412C512C3AEF48
:100A0000632E33EC732E10C020E030E04AEF53E445
:100A1000C301B2010E94D72387FD06C0412C512C8F
:100A20002AEF622E23E4722ED80190964D925D92A9
:100A30006D927C92939798964D905D906D907C907E
:100A40009B9794968D909D90AD90BC9097972FEF2B
:100A50003FEF4FE75FE7C301B2010E94D723811147
:100A600015C02FEF3FEF4FE75FE7C501B4010E94CC
:100A7000D7238823A1F1A5019401C701B6010E94E3
:100A8000322520E030E040E251E424C020E030E0B4
:100A900040E450E4C701B6010E943D246D877E8783
:100AA0008F87988B20E030E040E850E4C501B40126
:100AB0000E943D249B01AC016D857E858F859889C0
:100AC0000E943225A30192010E94332520E030E0EC
:100AD00040EA51E40E949F252B013C0103C0412CB8
:100AE000512C3201F80180A691A6A2A6B3A6C4A2F9
:100AF000D5A2E6A2F7A22489358946895789C7017C
:100B0000B6010E943D246D877E878F87988B62EBAC
:100B100074E0CE0107960E94C214BE01695F7F4F48
:100B2000CE0101960E94641168EF71E0CE0101963A
:100B30000E9446114D855E856F8578890E94A810B8
:100B40000E949719CE0101960E945F11CE0107966F
:100B50000E945F118BEB94E00E948112F80120A1AA
:100B600031A142A153A1608D718D828D938D0E9420
:100B70003D246D877E878F87988B62EB74E0CE0172
:100B800007960E94C214BE01695F7F4FCE01019695
:100B90000E94641164E072E0CE0101960E94461149
:100BA0004D855E856F8578890E94A8100E949719EF
:100BB000CE0101960E945F11CE0107960E945F113F
:100BC0008BEB94E00E948112D8015C962D913D91AF
:100BD0004D915C915F97C301B2010E943D246D87E6
:100BE0007E878F87988B62EB74E0CE0107960E9418
:100BF000C214BE01695F7F4FCE0101960E9464114D
:100C000068E172E0CE0101960E9446114D855E8535
:100C10006F8578890E94A8100E949719CE010196CD
:100C20000E945F11CE0107960E945F118BEB94E04A
:100C30000E948112F8012489358946895789C701A4
:100C4000B6010E943D246B017C01D80190962D9144
:100C50003D914D915C91939758966D917D918D91B9
:100C60009C915B970E943D249B01AC01C701B6019A
:100C70000E9433256B017C01F801248D358D468D52
:100C8000578DC301B2010E943D249B01AC01C701F5
:100C9000B6010E9433256B017C0162EB74E0CE014A
:100CA00001960E94C214BE016F5F7F4FCE0107966E
:100CB0000E94641162E272E0CE0107960E94461122
:100CC000B701A6010E94A8100E949719CE010796AD
:100CD0000E945F11CE0101960E945F118BEB94E0A0
:100CE0000E94811220E030E040E05FE3C701B601DE
:100CF0000E943D2420E030E040E85FE30E9433257D
:100D00009B01AC0169897A898B899C890E943D2469
:100D1000962ED72E7C0162EB74E0CE0101960E94E4
:100D2000C214BE016F5F7F4FCE0107960E9464110F
:100D30006AE372E0CE0107960E944611492D5D2DAF
:100D4000B7010E94A8100E949719CE0107960E9431
:100D50005F11CE0101960E945F118BEB94E00E941F
:100D6000811206C0912CD12C80E8E82E9FE3F92E49
:100D7000D8011E96AC901E971F96BC901F97509658
:100D8000CC90509751961C9195014C2D512F692D67
:100D90007D2DC7010E94D72387FF04C0A92CBD2C3D
:100DA000CE2C1F2DB5018C2D912F64960FB6F89483
:100DB000DEBF0FBECDBFDF91CF911F910F91FF908E
:100DC000EF90DF90CF90BF90AF909F908F907F90EB
:100DD0006F905F904F900895CF93DF93EC0118A22E
:100DE00019A21AA21BA28FEF9FEFAFE7BFE788A758
:100DF00099A7AAA7BBA78CA39DA3AEA3BFA3CE010F
:100E00000E947504EA89FB896187728783879487CA
:100E1000DF91CF9108958F929F92AF92BF92CF9220
:100E2000DF92EF92FF920F931F93CF93DF93CDB793
:100E3000DEB767970FB6F894DEBF0FBECDBF5C017B
:100E40007A018B0162EB74E0CE0101966C010E9485
:100E5000C214B601CE0108960E9464116CED72E0D6
:100E6000CE0108960E944611A701B8010E94A81061
:100E70000E949719CE0108960E945F11C6010E9438
:100E80005F118BEB94E00E94811220E030E0A90119
:100E9000B701C8010E94D72387FD0FC020E030E0D2
:100EA00040E85FE3B701C8010E94472618164CF4DA
:100EB000E12CF12C00E81FE304C0E12CF12C00E050
:100EC00010E0C701D801F50184839583A683B78319
:100ED00026EB33EF4DEF5CE3B701C8010E94D72347
:100EE0001816B4F020E030E04FE753E4B701C80132
:100EF0000E943D2426EB33EF4DEF5CE30E949F25DB
:100F00000E941826F501608720E030E0A90113C097
:100F10008FEFF501808726EB33EF4DEF5CE3B701F0
:100F2000C8010E94322522E630E148E75FE30E94D3
:100F30009F259B01AC01F501108562EB74E0C601B1
:100F40002C8B3D8B4E8B5F8B0E94C214B601CE0161
:100F500008960E94641166E572E0CE0108960E9430
:100F60004611612F0E9415110E949719CE01089613
:100F70000E945F11C6010E945F118BEB94E00E94FA
:100F80008112F501828193812C893D894E895F8987
:100F9000892B69F490856FEF70E0FB01E91BF10983
:100FA000CF010E94401A5F894E893D892C8960E0FB
:100FB00070E080E89FE30E94322520E030E040E8C6
:100FC00053E40E943D240E9411264B015C0162EB18
:100FD00074E0CE010E960E94C214BE01625F7F4F84
:100FE000CE0108960E94641162E672E0CE01089676
:100FF0000E9446118C014AE0B601C4010E944721BB
:10100000F60101900020E9F73197AF014C195D0915
:10101000B601C8010E946810811103C0C8010E9476
:101020009610C8010E949719CE0108960E945F1180
:10103000CE010E960E945F118BEB94E00E9481120C
:10104000F1E09F220CB405FE0CC08EBC00000DB474
:1010500007FEFDCF8EB59EBC00000DB407FEFDCF90
:101060000BC09EBC00000DB407FEFDCF8EB58EBC3C
:1010700000000DB407FEFDCF8EB503EE13E0C801EE
:101080000197F1F761E08AE00E94D419C801019745
:10109000F1F760E08AE00E94D41967960FB6F894E1
:1010A000DEBF0FBECDBFDF91CF911F910F91FF909B
:1010B000EF90DF90CF90BF90AF909F908F9008956A
:1010C0004F925F926F927F92AF92BF92CF92DF92D8
:1010D000EF92FF920F931F93CF93DF93EC010E9447
:1010E0007504162F072FF82EE92E0A88DB89C02DEC
:1010F000862F902FAF2DBE2D89879A87AB87BC870F
:101100004C805D806E807F80212F302F4F2D5E2D93
:10111000C301B2010E94472618162CF4412F502F0C
:101120006F2D7E2D26C0AFA4B8A8C9A8DAA8950156
:10113000A601C301B2010E94D72387FF2BC0212F34
:10114000302F4F2D5E2DC301B2010E94D72388237B
:1011500009F1212F302F4F2D5E2DB501C6010E94C0
:10116000D72387FD04C0A12EB02ECF2CDE2CA501E5
:10117000B601CE01DF91CF911F910F91FF90EF90BB
:10118000DF90CF90BF90AF907F906F905F904F9027
:101190000C940B07DF91CF911F910F91FF90EF906F
:1011A000DF90CF90BF90AF907F906F905F904F9007
:1011B00008950F931F93CF93DF93CDB7DEB72C978E
:1011C0000FB6F894DEBF0FBECDBF0091B4041091EE
:1011D000B5040E94B01962EB74E0892B09F063C07A
:1011E000CE0107960E94C214BE01695F7F4FCE01F7
:1011F00001960E94641163E772E0CE0101960E949D
:1012000046110E949719CE0101960E945F11CE01EE
:1012100007960E945F118BEB94E00E948112F80107
:1012200082819381892BE1F462EB74E0CE01019617
:101230000E94C214BE016F5F7F4FCE0107960E94CD
:10124000641165E872E0CE0107960E9446110E9483
:101250009719CE0107960E945F11CE01019662C0D8
:10126000F801138212820E94D61AF80164877587EA
:101270008687978764837583868397838481958126
:10128000A681B7814085518562857385841B950B46
:10129000A60BB70B8C329140A105B10508F484C0B0
:1012A000F801108A81C0CE0107960E94C214BE01C7
:1012B000695F7F4FCE0101960E94641166EA72E079
:1012C000CE0101960E9446110E949719CE01019607
:1012D0000E945F11CE0107960E945F118BEB94E094
:1012E0000E948112F80182819381019711F562EBCE
:1012F00074E0CE0107960E94C214BE01695F7F4F61
:10130000CE0101960E94641168EB72E0CE01019655
:101310000E9446110E949719CE0101960E945F110A
:10132000CE0107960E945F118BEB94E00E94811220
:101330003BC081E090E0F801938382830E94D61A3B
:10134000F8016487758786879787608771878287AA
:10135000938780859185A285B38544815581668177
:101360007781841B950BA60BB70B8C329140A1059E
:10137000B10520F4F80180898F5F14C0F8018085E1
:101380009185A285B3854481558166817781841BCF
:10139000950BA60BB70B81399140A105B10520F43F
:1013A00081E0F801808B118AF80180819181BC0174
:1013B0006D597F4F0E94D9162C960FB6F894DEBF58
:1013C0000FBECDBFDF91CF911F910F9108950C9467
:1013D0002B290C942B290C942B290C942B298F92BC
:1013E0009F92AF92BF92CF92DF92EF92FF920F93B4
:1013F0001F93CF93DF93CDB7DEB72C970FB6F8943A
:10140000DEBF0FBECDBF8C016A017B0162EB74E0D1
:10141000CE0101960E94C214BE016F5F7F4FCE01C4
:1014200007960E9464116BED72E0CE0107960E9450
:101430004611A601B7010E94A8100E949719CE017B
:1014400007960E945F11CE0101960E945F118BEBFF
:1014500094E00E94811220E030E0A901B601C701AA
:101460000E94D72387FD11C020E030E040E85FE311
:10147000B601C7010E94472618165CF4C12CD12C76
:1014800080E8E82E9FE3F92E04C0C12CD12CE12C7A
:10149000F12CC601D701F80183A794A7A5A7B6A789
:1014A00085858823D1F12AE037ED43EA5DE3B60173
:1014B000C7010E94D7232AE037ED43E25EE3B6017D
:1014C00087FF16C0C7010E94332521EE3AE744E9A1
:1014D0005FE30E949F252BEC3DE34DE05EE30E941D
:1014E000322528E830E843E05EE30E943D240FC047
:1014F000C7010E94332521EE3AE744E95FE30E94E9
:101500009F2520E030E040E450E40E944C26F801A2
:1015100067A770AB81AB92AB07C0C601D701F801DA
:1015200087A790ABA1ABB2ABF801C7A4D0A8E1A844
:10153000F2A881849284A384B4849401A501B601A5
:10154000C7010E94D72387FD02C064017501A6016F
:10155000B701C8010E940B072C960FB6F894DEBFA6
:101560000FBECDBFDF91CF911F910F91FF90EF90F4
:10157000DF90CF90BF90AF909F908F900895CF92C3
:10158000DF92EF92FF920F931F93CF93DF93CDB72C
:10159000DEB72C970FB6F894DEBF0FBECDBF7C012F
:1015A0008B01672B29F09AEFC92E92E0D92E04C047
:1015B00087EFC82E82E0D82E62EB74E0CE01019650
:1015C0000E94C214BE016F5F7F4FCE0107960E943A
:1015D00064116EEF72E0CE0107960E944611B601CB
:1015E0000E9446110E949719CE0107960E945F1132
:1015F000CE0101960E945F118BEB94E00E94811254
:101600000115110559F4F70190852FEF30E0A9017C
:10161000491B5109CA010E94401A04C061E089E0D7
:101620000E94D419F701138302832C960FB6F89405
:10163000DEBF0FBECDBFDF91CF911F910F91FF9005
:10164000EF90DF90CF900895AF92BF92CF92DF924C
:10165000EF92FF920F931F93CF93DF93CDB7DEB737
:101660002C970FB6F894DEBF0FBECDBF8C01FB01E7
:10167000D180C0807C018AEBE80EF11CD701ED918E
:10168000FC91A480B58062EB74E0CE0101960E94CB
:10169000C214BE016F5F7F4FCE0107960E94641196
:1016A000B501CE0107960E94461165E173E00E94E4
:1016B00046116C2D0E94151164E373E00E944611DF
:1016C0006D2D0E9415116EE373E00E9446110E9479
:1016D0009719CE0107960E945F11CE0101960E94D4
:1016E0005F118BEB94E00E948112F7018081918160
:1016F00004541F4F8017910739F0DC01ED91FC91E4
:101700000680F781E02D0995F7011183008360E0E1
:1017100070E0C8010E94B0152C960FB6F894DEBF99
:101720000FBECDBFDF91CF911F910F91FF90EF9032
:10173000DF90CF90BF90AF900895AF92BF92CF92BD
:10174000DF92EF92FF920F931F93CF93DF93CDB76A
:10175000DEB762970FB6F894DEBF0FBECDBF8C0127
:101760006B015A01DB011496ED90FC90159762EB2A
:1017700074E0CE0101960E94C214BE016F5F7F4FDC
:10178000CE0107960E9464116AE473E0CE010796C9
:101790000E944611B7010E9446110E949719CE017E
:1017A00007960E945F11CE0101960E945F118BEB9C
:1017B00094E00E9481127801BAEBEB0EF11CF70164
:1017C00080819181DC01ED91FC910680F781E02D13
:1017D0000995F701D182C082D601ED91FC91048078
:1017E000F581E02DB501C6010995811156C0B501FD
:1017F000CE0101960E94C214D701ED91FC91C480E4
:10180000D58062EB74E0CE010D960E94C214BE0139
:10181000635F7F4FCE0107960E946411B601CE012F
:1018200007960E9446116BE573E00E9446116C0119
:101830004D815E8169817A810E946810811103C0A7
:10184000C6010E949610C6010E949719CE01079604
:101850000E945F11CE010D960E945F11CE0101968C
:101860000E945F118BEB94E00E948112F70180814E
:10187000918104541F4F8017910739F0DC01ED91DD
:10188000FC910680F781E02D0995F7011183008313
:1018900060E070E0C8010E94B01562960FB6F8943F
:1018A000DEBF0FBECDBFDF91CF911F910F91FF9093
:1018B000EF90DF90CF90BF90AF900895CF93DF93DC
:1018C000CDB7DEB72C970FB6F894DEBF0FBECDBFF5
:1018D000E091B604F091B7048085918562EB74E0E5
:1018E000039701F5CE0101960E94C214BE016F5FFD
:1018F0007F4FCE0107960E94641161E773E0CE012D
:1019000007960E9446110E949719CE0107960E94E1
:101910005F11CE0101960E945F118BEB94E00E9453
:1019200081122FC0CE0101960E94C214BE016F5FCA
:101930007F4FCE0107960E94641167E873E0CE01E5
:1019400007960E9446110E949719CE0107960E94A1
:101950005F11CE0101960E945F118BEB94E00E9413
:1019600081128091B6049091B70423E030E0FC012D
:1019700031872087BC016E527F4F4AE051E00E94C0
:101980009D0B2C960FB6F894DEBF0FBECDBFDF9136
:10199000CF910895AF92BF92CF92DF92EF92FF92D4
:1019A0000F931F93CF93DF93CDB7DEB72C970FB66E
:1019B000F894DEBF0FBECDBF7C018B016A01DB0155
:1019C0001496AD90BC90159762EB74E0CE01019631
:1019D0000E94C214BE016F5F7F4FCE0107960E9426
:1019E00064116AE473E0CE0107960E944611B501C6
:1019F0000E9446110E949719CE0107960E945F111E
:101A0000CE0101960E945F118BEB94E00E9481123F
:101A10005701BAEBAB0EB11CF50180819181DC015D
:101A2000ED91FC910680F781E02D0995F501118378
:101A30000083D801ED91FC910280F381E02DB60185
:101A4000C8010995811104C0B601C7010E94240B89
:101A50002C960FB6F894DEBF0FBECDBFDF91CF91AD
:101A60001F910F91FF90EF90DF90CF90BF90AF90BC
:101A70000895AF92BF92CF92DF92EF92FF920F93B1
:101A80001F93CF93DF93CDB7DEB72C970FB6F894A3
:101A9000DEBF0FBECDBF8C015B01672B29F09AEF33
:101AA000E92E92E0F92E04C087EFE82E82E0F82EAE
:101AB00062EB74E0CE0101960E94C214BE016F5F1A
:101AC0007F4FCE0107960E94641166E973E0CE0154
:101AD00007960E944611B7010E9446110E9497196D
:101AE000CE0107960E945F11CE0101960E945F1100
:101AF0008BEB94E00E948112C8018E559F4F7C01B0
:101B0000F801EC58FF4F6F01AB2809F561E085E063
:101B10000E94D419B701C8010E94D916B601C801A4
:101B20000E94D91682E090E0F8019187808762EBED
:101B300074E0CE0101960E94C214BE016F5F7F4F18
:101B4000CE0107960E94641169EA73E024C061E047
:101B500070E0C801C0960E94BF0AC6010E94981793
:101B6000C7010E94981760E085E00E94D41984E0C4
:101B700090E0F8019187808762EB74E0CE010196D6
:101B80000E94C214BE016F5F7F4FCE0107960E9474
:101B900064116FEB73E0CE0107960E9446110E941C
:101BA0009719CE0107960E945F11CE0101960E94FF
:101BB0005F118BEB94E00E9481122C960FB6F89483
:101BC000DEBF0FBECDBFDF91CF911F910F91FF9070
:101BD000EF90DF90CF90BF90AF900895CF93DF93B9
:101BE00023EA31E0FC0131832083868597850097C5
:101BF00041F0FC01D285C3850E942B298D2F9C2F9B
:101C0000F6CFDF91CF910895CF93DF93EC010E943F
:101C1000EE0DCE01DF91CF910C942B2908950895FC
:101C20000F931F93CF93DF93FC0122813381232BEA
:101C300011F481E019C0EC010E94D61A08851985BB
:101C40002A853B85DC01CB01801B910BA20BB30BDA
:101C50008C329140A105B10560F38889882319F081
:101C60008989882331F380E0DF91CF911F910F9113
:101C700008950895CF93DF93EC018EA190E0019633
:101C800063E070E00E943A289C018EA3A881B9818C
:101C9000FE01E80FF91F87A1F901EE0FFF1FE80F02
:101CA000F11DEE0FFF1FEE0FFF1FEC0FFD1F46850E
:101CB0005785608971891496ED91FC911597CE0135
:101CC000DF91CF910994CF93DF93FC01AB01DB014E
:101CD0008C918823C9F1813079F1823009F040C0BC
:101CE00082819381FC01EA5AFF4FE081F0E0DC0140
:101CF000AE0FBF1FA95ABF4F2C9130E02F5F3F4F4F
:101D0000217033272C93EC01A8A9B9A9EE0FFF1F6E
:101D1000E20FF31FEE0FFF1FEE0FFF1FE80FF91F7B
:101D2000FE9640815181628173811496ED91FC9100
:101D30001597C096099512C082819381BC016454A5
:101D40007F4F0E94CA0C0AC0DB0111968C91882338
:101D500039F082819381C0960E943A0E81E001C0E1
:101D600080E0DF91CF910895FC0166A37727A081E1
:101D7000B181E60FF71F27A1FB01EE0FFF1FE20F56
:101D8000F11DEE0FFF1FEE0FFF1FE80FF91F468535
:101D90005785608971891496ED91FC911597099486
:101DA0004F925F926F927F92AF92BF92CF92DF92EB
:101DB000EF92FF920F931F93CF93DF93CDB7DEB7D0
:101DC0002E970FB6F894DEBF0FBECDBF8C015B011E
:101DD000FC01E480F58062EB74E0CE0101960E9484
:101DE000C214BE016F5F7F4FCE0107960E9464113F
:101DF000B701CE0107960E9446116FEC73E00E9476
:101E000046110E949719CE0107960E945F11CE01DC
:101E100001960E945F118BEB94E00E948112F50104
:101E20008081823681F0843709F09FC0F801828179
:101E30009381C0960E943C0420E030E040E251E4EF
:101E40000E949F2515C0F801828193814C960E94C3
:101E5000A50320E030E040E251E40E943D240E94CE
:101E60001126062E000C770B880B990B0E94DE239F
:101E70006B017C010E941126F801608720E030E0B0
:101E800040E251E4C701B6010E943D242B013C0110
:101E900020E030E0A9010E94472620E030E040E049
:101EA0005FE387FD05C0C301B2010E94332504C072
:101EB000C301B2010E9432250E941126862F6AE0DA
:101EC0000E942C28F8019187F501B08062EB74E044
:101ED000CE0101960E94C214BE016F5F7F4FCE01FA
:101EE00007960E946411BD861E8641E050E0BE0147
:101EF000635F7F4FCE0107960E946810811104C076
:101F0000CE0107960E9496106DED73E0CE01079604
:101F10000E944611B701A6010E94A8100E949719BD
:101F2000CE0107960E945F11CE0101960E945F11BB
:101F30008BEB94E00E948112F8018281938161E031
:101F400070E0C0960E94B40EF8018281938161E036
:101F500070E0C0960E94BF0AF80166817781828195
:101F600093810E94D91681E001C080E02E960FB6C1
:101F7000F894DEBF0FBECDBFDF91CF911F910F91BF
:101F8000FF90EF90DF90CF90BF90AF907F906F90D9
:101F90005F904F900895CF92DF92EF92FF920F9350
:101FA0001F93CF93DF93CDB7DEB72C970FB6F8947E
:101FB000DEBF0FBECDBF8C017B01FC01C480D5808C
:101FC00062EB74E0CE0101960E94C214BE016F5F05
:101FD0007F4FCE0107960E946411B601CE0107968D
:101FE0000E9446116FEC73E00E9446110E949719FF
:101FF000CE0107960E945F11CE0101960E945F11EB
:102000008BEB94E00E948112F7018081882381F09C
:10201000813041F0823011F5F8018281938161E0D5
:1020200070E00FC0F8018281938162E070E009C026
:10203000F7018181882391F0F8018281938160E02A
:1020400070E0C0960E94B40EF8018281938160E036
:1020500070E0C0960E94BF0A81E001C080E02C962B
:102060000FB6F894DEBF0FBECDBFDF91CF911F91A9
:102070000F91FF90EF90DF90CF90089508950E9408
:102080008D2A0F931F93CF93DF93EC018881998161
:10209000009729F02A813B812617370788F48B01A6
:1020A0006F5F7F4F0E94C329009761F099838883F7
:1020B0001B830A832C813D81232B11F4FC011082A8
:1020C00081E001C080E0DF91CF911F910F910895D1
:1020D000EF92FF920F931F93CF93DF93FC01248124
:1020E00035816115710511F480E019C04115510564
:1020F000A9F07B01EC018A01020F131FB8010E94B5
:102100004110882389F3288139818C819D81B70111
:10211000820F931F0E949B2A1D830C8381E0DF9115
:10212000CF911F910F91FF90EF900895CF93DF9380
:10213000EC0188819981009711F00E942B29198266
:1021400018821D821C821B821A82DF91CF91089512
:10215000EF92FF920F931F93CF93DF93CDB7DEB72C
:1021600064970FB6F894DEBF0FBECDBF7C01CB01E4
:10217000BA018E010F5F1F4F22E044E00E941C2134
:10218000FC0101900020E9F73197AF01481B590B82
:10219000BC01C7010E946810811103C0C7010E94E1
:1021A0009610C70164960FB6F894DEBF0FBECDBF80
:1021B000DF91CF911F910F91FF90EF900895EF92D3
:1021C000FF920F931F93CF93DF93CDB7DEB728977E
:1021D0000FB6F894DEBF0FBECDBF7C01CB014AE045
:1021E0008E010F5F1F4FB8010E943C21F801019042
:1021F0000020E9F73197AF01401B510BB801C7012F
:102200000E946810811103C0C7010E949610C70187
:1022100028960FB6F894DEBF0FBECDBFDF91CF91E9
:102220001F910F91FF90EF900895EF92FF920F93FF
:102230001F93CF93DF9300D000D0CDB7DEB77C01E2
:10224000862F4AE08E010F5F1F4FB80190E00E9479
:102250003C21F80101900020E9F73197AF01401BC4
:10226000510BB801C7010E946810811103C0C7015A
:102270000E949610C7010F900F900F900F90DF9162
:10228000CF911F910F91FF90EF900895CF93DF931F
:10229000EC016115710561F0FB0101900020E9F787
:1022A0003197AF01461B570B0E946810811103C084
:1022B000CE010E949610CE01DF91CF910895FC01CE
:1022C000808191810C942B29EF92FF920F931F93A1
:1022D000CF93DF93FC011182108213821282158248
:1022E00014828617970739F1DB010D911C91119724
:1022F0000115110501F1EC011496ED90FC90159774
:10230000B7010E944110811109C0CE01DF91CF9128
:102310001F910F91FF90EF900C949610FD82EC822C
:10232000B80188819981DF91CF911F910F91FF9022
:10233000EF900C949B2ADF91CF911F910F91FF900A
:10234000EF9008950895CF92DF92EF92FF920F934E
:102350001F93CF93DF936C017A018B01C0E0D0E033
:10236000CE15DF0589F0D8016D918D01D601ED9173
:10237000FC910190F081E02DC6010995892B11F4A3
:102380007E0102C02196ECCFC701DF91CF911F9152
:102390000F91FF90EF90DF90CF900895089580E027
:1023A00090E00895FC01538D448D252F30E0842F5B
:1023B00090E0821B930B541710F0CF96089501976D
:1023C0000895FC01918D828D981761F0828DDF0157
:1023D000A80FB11D5D968C91928D9F5F9F73928F18
:1023E00090E008958FEF9FEF0895FC01918D828D0D
:1023F000981731F0828DE80FF11D858D90E00895DA
:102400008FEF9FEF0895FC01918D228D892F90E031
:10241000805C9F4F821B91098F73992708958BEBE6
:1024200094E00E94031221E0892B09F420E0822F1E
:102430000895FC01848DDF01A80FB11DA35ABF4F81
:102440002C91848D90E001968F739927848FA689B3
:10245000B7892C93A089B1898C9180648C93938DDA
:10246000848D981306C00288F389E02D80818F7DCA
:1024700080830895EF92FF920F931F93CF93DF9382
:10248000EC0181E0888F9B8D8C8D981305C0E889C5
:10249000F989808185FD24C0F62E0B8D10E00F5F39
:1024A0001F4F0F731127E02E8C8DE8120CC00FB652
:1024B00007FCFACFE889F989808185FFF5CFCE0145
:1024C0000E941912F1CF8B8DFE01E80FF11DE35A26
:1024D000FF4FF0820B8FEA89FB898081806207C001
:1024E000EE89FF896083E889F9898081806480832F
:1024F00081E090E0DF91CF911F910F91FF90EF90DD
:102500000895CF93DF93EC01888D8823C9F0EA8981
:10251000FB89808185FD05C0A889B9898C9186FDDC
:102520000FC00FB607FCF5CF808185FFF2CFA889D9
:10253000B9898C9185FFEDCFCE010E941912E7CFAA
:10254000DF91CF91089580E090E0892B29F00E94DF
:102550000F1281110C94000008954115510529F4C2
:10256000EAE7F0E080818F7780836A307105A9F017
:1025700063FD02C088E001C088E26770682B88E1D3
:102580000FB6F894A895809360000FBE609360002A
:10259000E0E6F0E0808180648083232BA1F483B7A0
:1025A000817F846083BFF89483B7816083BF85B7E0
:1025B000806685BF8F7D85BF7894889583B78E7F31
:1025C00083BF78940EC083B7817F846083BFF89403
:1025D00083B7816083BF7894889583B78E7F83BFEC
:1025E0007894452B29F4EAE7F0E0808180688083C5
:1025F0000895CF92DF92EF92FF9220EDC22E27E056
:10260000D22EE12CF12CA70196010E944E28683EA3
:1026100023E072078105910540F0A7019601261B72
:10262000370B480B590BCA01B9010E94DC2320E08B
:1026300030E04AE754E40E949F25FF90EF90DF903E
:10264000CF900895DC01ED91FC910280F381E02DA3
:1026500060E070E009940C942B290C942B290C94C5
:102660002B29AF92BF92CF92DF92EF92FF920F93FE
:102670001F93CF93DF9300D0CDB7DEB75C01DC01B1
:1026800018968D919C9119978230910589F044F4A8
:10269000009709F4A2C0019709F0C4C03AEFA3C0A3
:1026A00084309105F1F08CF0059709F475C0BAC03B
:1026B000D5011296ED91FC91139782A993A90197E8
:1026C00009F48EC038E72FE08FC0D5011296ED9146
:1026D000FC91139782A993A9019709F483C030E470
:1026E00082C0D5011296ED91FC911397DF01AA5A91
:1026F000BF4F2C9130E0DF01A20FB31FA95ABF4F8B
:102700008C91220F331F280F311D220F331F220FF0
:10271000331FE20FF31FFE96C080D180E280F3806A
:102720000E94D61A0E94DC232FE632E143E85AE3E6
:102730000E943D242BED3FE049E450E40E943D24FB
:102740000E949C2620E030E040E85FE30E943325B1
:102750009B01AC01C701B6010E943D2420E030E09E
:1027600040E05FE30E943D246B017C012FE632E1F3
:1027700043E05BE30E944726181644F08FE6C82E1C
:1027800082E1D82E83E0E82E8BE3F82EF5018281DA
:102790009381B701A6011CC00E94D61A0E94F912AB
:1027A0002FE632E143E05BE30E94D72387FD07C0B9
:1027B0000E94D61A0E94F912AB01BC0104C04FE678
:1027C00052E163E07BE3D50112968D919C911397C2
:1027D000C0960E94EF093EE106C034EF21E004C03C
:1027E00038E201C030E120E000E010E0F501808532
:1027F000918504970297D8F08281938161E070E01F
:10280000DC01D2964D915C91D397452B11F060E09D
:1028100070E0C0962A8339830E94BF0A3981632FF2
:102820002A8106C06FEF7FEF8FEF9FEF03C0632F0A
:10283000722FC8010F900F90DF91CF911F910F91D0
:10284000FF90EF90DF90CF90BF90AF9008950F93DF
:102850001F93CF93DF93DC0119969C9119971896DB
:102860008C9118971296ED91FC911397911111C0CC
:1028700021E0280F223068F4BF0164547F4F40E00C
:1028800050E0CF010E94CA0C6FEF7FEF8FEF9FEFF8
:1028900033C018163CF422A933A921303105C9F000
:1028A000815007C0811108C082A993A9019771F0D6
:1028B0008FEF18968C9308C022A933A921303105D7
:1028C00041F0915019969C930CEC01C000E911E085
:1028D00002C008E210E0D0E0C0E061E070E082A950
:1028E00093A9892B11F060E070E0CF01C0960E949F
:1028F000BF0AB8018D2F9C2FDF91CF911F910F91AF
:102900000895FC01AB01DB019C91992359F19330AF
:1029100089F018F4913058F533C09530C9F080F043
:10292000963071F50280F381E02D95AD81E0892725
:1029300085AF24C082819381BC0168537F4F1CC046
:1029400082819381BC016E527F4F4EEB51E007C0F4
:1029500082819381BC016E527F4F4DEB51E00E940A
:102960009D0B0CC0DB0111968C91882349F082816C
:102970009381BC016E537F4F0E94CA0C81E0089581
:1029800080E00895EF92FF920F931F93CF93DF9310
:10299000EC01198218821B821A821D821C82611529
:1029A000710521F18B01FB0101900020E9F73197BE
:1029B0007F01E61AF70AB7010E944110811109C090
:1029C000CE01DF91CF911F910F91FF90EF900C946A
:1029D0009610FD82EC82B80188819981DF91CF91B8
:1029E0001F910F91FF90EF900C949B2ADF91CF9154
:1029F0001F910F91FF90EF900895CF93DF93CDB784
:102A0000DEB72C970FB6F894DEBF0FBECDBF62EBDA
:102A100074E0CE0101960E94C214BE016F5F7F4F29
:102A2000CE0107960E94641166E774E0CE01079616
:102A30000E9446110E949719CE0107960E945F11CD
:102A4000CE0101960E945F118BEB94E00E948112EF
:102A50002C960FB6F894DEBF0FBECDBFDF91CF919D
:102A60000895CF93DF93CDB7DEB72C970FB6F894C8
:102A7000DEBF0FBECDBF62EB74E0CE0101960E94B7
:102A8000C214BE016F5F7F4FCE0107960E94641192
:102A900063E874E0CE0107960E9446110E949719E0
:102AA000CE0107960E945F11CE0101960E945F1130
:102AB0008BEB94E00E94811281E02C960FB6F89483
:102AC000DEBF0FBECDBFDF91CF910895EF92FF9291
:102AD0000F931F93CF93DF93CDB7DEB72C970FB62D
:102AE000F894DEBF0FBECDBF8C01FC01E480F58001
:102AF00062EB74E0CE0101960E94C214BE016F5FCA
:102B00007F4FCE0107960E946411B701CE01079650
:102B10000E94461161ED71E00E9446110E949719D2
:102B2000CE0107960E945F11CE0101960E945F11AF
:102B30008BEB94E00E94811260E070E0F8018281EA
:102B400093810E94390D2C960FB6F894DEBF0FBE0C
:102B5000CDBFDF91CF911F910F91FF90EF9008951E
:102B6000EF92FF920F931F93CF93DF93CDB7DEB712
:102B70002C970FB6F894DEBF0FBECDBF8C01FC01C1
:102B8000E480F58062EB74E0CE0101960E94C214ED
:102B9000BE016F5F7F4FCE0107960E946411B7019F
:102BA000CE0107960E9446116FEC73E00E94461119
:102BB0000E949719CE0107960E945F11CE010196DF
:102BC0000E945F118BEB94E00E94811261E070E043
:102BD000F801828193810E94390DA8950FB6F8946F
:102BE000A8958091600088618093600010926000D9
:102BF0000FBE20E030E040E050E06AE070E08AEB99
:102C000094E00E94AD12A8959DE088E10FB6F8947B
:102C1000A895809360000FBE9093600081E02C9691
:102C20000FB6F894DEBF0FBECDBFDF91CF911F91DD
:102C30000F91FF90EF9008951F920F920FB60F9291
:102C400011242F933F934F935F936F937F938F93B1
:102C50009F93AF93BF93EF93FF93E0910201F091A5
:102C600003010995FF91EF91BF91AF919F918F91D2
:102C70007F916F915F914F913F912F910F900FBE78
:102C80000F901F9018951F920F920FB60F9211245C
:102C90002F933F934F935F936F937F938F939F9364
:102CA000AF93BF93EF93FF93E0910001F091010187
:102CB0000995FF91EF91BF91AF919F918F917F9176
:102CC0006F915F914F913F912F910F900FBE0F9099
:102CD0001F9018951F920F920FB60F9211242F93E9
:102CE0003F934F935F936F937F938F939F93AF9394
:102CF000BF93EF93FF938BEB94E00E941912FF9127
:102D0000EF91BF91AF919F918F917F916F915F9163
:102D10004F913F912F910F900FBE0F901F901895DC
:102D20001F920F920FB60F9211242F938F939F93A0
:102D3000EF93FF93E091CB04F091CC048081E0917C
:102D4000D104F091D20482FD12C090818091D4040C
:102D50008F5F8F732091D504821751F0E091D404D6
:102D6000F0E0E554FB4F958F8093D40401C080813F
:102D7000FF91EF919F918F912F910F900FBE0F9028
:102D80001F9018951F920F920FB60F9211248F93D8
:102D90000FB6F894A89580916000886180936000D8
:102DA000109260000FBE8F910F900FBE0F901F907A
:102DB0001895CF93DF93FC01DB011C968D919C91BC
:102DC0001D978130910551F1892B79F4848195818A
:102DD000892B19F47583648306C0A681B7811B967D
:102DE0007C936E931A9777836683EB018E819F8124
:102DF000A885B9858A839B83AC83BD83E881F981EB
:102E00000190F081E02DCB010995882319F081E034
:102E100090E002C082E090E09D878C87DF91CF91A7
:102E20000895EF92FF920F931F93CF93DF93CDB747
:102E3000DEB72C970FB6F894DEBF0FBECDBF8C0166
:102E4000FC01E480F58062EB74E0CE0101960E9403
:102E5000C214BE016F5F7F4FCE0107960E946411BE
:102E6000B701CE0107960E9446116FEC73E00E94F5
:102E700046110E949719CE0107960E945F11CE015C
:102E800001960E945F118BEB94E00E948112F80181
:102E9000E084F18462EB74E0CE0101960E94C214DA
:102EA000BE016F5F7F4FCE0107960E94641161E9FA
:102EB00074E0CE0107960E944611B7010E94DF1010
:102EC0000E949719CE0107960E945F11CE010196CC
:102ED0000E945F118BEB94E00E948112F8018281C5
:102EE000938161E070E0C0960E94B40EF801808585
:102EF00091850497029738F48281938160E070E0B5
:102F0000C0960E94BF0AF801668177818281938111
:102F10000E94D91681E02C960FB6F894DEBF0FBE42
:102F2000CDBFDF91CF911F910F91FF90EF9008954A
:102F3000CF93DF93FC01248535852130310561F481
:102F4000EC010190F081E02D0280F381E02D0995E4
:102F500082E090E09D878C87DF91CF9108958F92DA
:102F60009F92AF92BF92DF92EF92FF920F931F93C7
:102F7000CF93DF93CDB7DEB72E970FB6F894DEBFB1
:102F80000FBECDBF8C01DC011E968D919C911F97C9
:102F90000A960E94100E882309F45AC0F801E684AC
:102FA000F784D7015B968C91811160C00E94D61A7C
:102FB000F70182889388A488B588DC01CB01881941
:102FC0009909AA09BB098C329140A105B10508F401
:102FD0004DC081E0D7015B968C935B975A96DC904D
:102FE000D7011C968D919C911D97892B11F0F12C86
:102FF00022C00E94D61AF70186849784A088B188DF
:10300000DC01CB0188199909AA09BB098139F1E0D2
:103010009F07A105B10558F3BC01CD01605971406E
:103020008109910928EE33E040E050E00E944E28EB
:10303000FF24F394F20EDD86FE86D11019C0FF2026
:1030400009F461C0D80150968C91F81211C05BC090
:10305000F894F801868597850A960E94100E8111D2
:1030600003C0C8010E94981778944DC0D12CB8CFE6
:1030700062EB74E0CE0101960E94C214BE016F5F44
:103080007F4FCE0107960E9464116EE974E0CE0175
:1030900007960E9446116D2D0E94151164E373E09E
:1030A0000E9446116F2D0E9415116EE373E00E947D
:1030B00046110E949719CE0107960E945F11CE011A
:1030C00001960E945F118BEB94E00E9481128E8525
:1030D000F801808B06851785F801E654FF4F808143
:1030E0009181DC01ED91FC910190F081E02DBE0118
:1030F000635F7F4F0995811106C0BE01635F7F4FFB
:10310000C8010E94240B2E960FB6F894DEBF0FBEA6
:10311000CDBFDF91CF911F910F91FF90EF90DF9086
:10312000BF90AF909F908F900895AF92BF92CF9233
:10313000DF92EF92FF920F931F93CF93DF93CDB760
:10314000DEB72C970FB6F894DEBF0FBECDBF8C0153
:103150007B01FC01C680D780A280B380C6010E949B
:103160009817B601C5010E94D916F70180818823FE
:1031700009F44BC0813019F0823059F052C0F80187
:1031800082819381BC0164547F4FA7010E94CA0CC5
:1031900046C0F80180859185019666E070E00E9446
:1031A0003A287C019187808762EB74E0CE0101961A
:1031B0000E94C214BE016F5F7F4FCE0107960E942E
:1031C000641161E974E0CE0107960E944611B701CF
:1031D0000E94DF100E949719CE0107960E945F118E
:1031E000CE0101960E945F118BEB94E00E94811248
:1031F000F80180859185049791F48281938160E044
:1032000070E0C0960E94BF0A0AC0F701818188233E
:1032100041F0F80182819381C0960E943A0E81E0CC
:1032200001C080E02C960FB6F894DEBF0FBECDBF74
:10323000DF91CF911F910F91FF90EF90DF90CF9092
:10324000BF90AF900895EF92FF920F931F93CF938B
:10325000DF93CDB7DEB72C970FB6F894DEBF0FBE65
:10326000CDBF8C01FC01E480F58062EB74E0CE01FF
:1032700001960E94C214BE016F5F7F4FCE01079678
:103280000E946411B701CE0107960E94461161EDBC
:1032900071E00E9446110E949719CE0107960E9484
:1032A0005F11CE0101960E945F118BEB94E00E94AA
:1032B0008112F801868197810E9498172C960FB68B
:1032C000F894DEBF0FBECDBFDF91CF911F910F915C
:1032D000FF90EF900895089508950895833081F048
:1032E00028F4813099F08230A1F008958730A9F058
:1032F0008830B9F08430D1F4809180008F7D03C094
:10330000809180008F7780938000089584B58F77B7
:1033100002C084B58F7D84BD08958091B0008F7701
:1033200003C08091B0008F7D8093B0000895CF934B
:10333000DF93FC0144815581608171818BEB94E0C6
:103340000E94A311EC0142E050E060EB74E08BEBD3
:1033500094E00E94A3118C0F9D1FDF91CF910895DF
:10336000CF93DF93EAE4F2E08491E6E3F2E0D491D4
:10337000E2E2F2E0C491CC2391F081110E946E1937
:10338000EC2FF0E0EE0FFF1FEA5EFD4FA591B49128
:10339000EC91ED2381E090E021F480E002C080E038
:1033A00090E0DF91CF9108951F93CF93DF93282F63
:1033B00030E0F901E85BFD4F8491F901EC5CFD4FD1
:1033C000D491F901E05EFD4FC491CC23C9F0162FD2
:1033D00081110E946E19EC2FF0E0EE0FFF1FE45FE9
:1033E000FD4FA591B4918FB7F894111105C09C9130
:1033F000ED2FE095E92302C0EC91ED2BEC938FBF0C
:10340000DF91CF911F910895CF93DF9390E0FC015E
:10341000EC5CFD4F2491FC01E05EFD4F849188231C
:1034200061F190E0880F991FFC01EE5FFD4FC5919F
:10343000D491FC01E45FFD4FA591B491611109C0E5
:103440009FB7F8948881209582238883EC912E235E
:103450000BC0623061F49FB7F8943881822F809559
:1034600083238883EC912E2B2C939FBF06C08FB7AC
:10347000F894E8812E2B28838FBFDF91CF91089598
:10348000CF93DF93EC0161E089E00E94041A20975A
:1034900011F460E004C0CF3FD10531F461E089E070
:1034A000DF91CF910C94D419E1E5F2E0E491E3309F
:1034B000F9F048F4E130B9F0E230A1F584B580626A
:1034C00084BDC8BD34C0E730E9F0E83019F1E4301C
:1034D00049F580918000806280938000D0938B00BA
:1034E000C0938A0024C084B5806884BDC7BD1FC056
:1034F00080918000806880938000D0938900C09381
:10350000880015C08091B00080688093B000C0939F
:10351000B3000DC08091B00080628093B000C09372
:10352000B40005C0C038D1050CF0B8CFB2CFDF91E0
:10353000CF9108958E3008F08E508770806480930C
:103540007C0080917A00806480937A0080917A0078
:1035500086FDFCCF809178002091790090E0922B3D
:1035600008953FB7F89480915D0590915E05A09114
:103570005F05B091600526B5A89B05C02F3F19F0E7
:103580000196A11DB11D3FBFBA2FA92F982F8827E3
:10359000820F911DA11DB11DBC01CD0142E0660F3E
:1035A000771F881F991F4A95D1F708952FB7F89470
:1035B0006091590570915A0580915B0590915C0569
:1035C0002FBF08951F920F920FB60F9211242F93C1
:1035D0003F938F939F93AF93BF93809159059091A1
:1035E0005A05A0915B05B0915C053091580523E028
:1035F000230F2D3720F40196A11DB11D05C026E82B
:10360000230F0296A11DB11D2093580580935905E3
:1036100090935A05A0935B05B0935C0580915D057E
:1036200090915E05A0915F05B09160050196A11D86
:10363000B11D80935D0590935E05A0935F05B093E7
:103640006005BF91AF919F918F913F912F910F9006
:103650000FBE0F901F901895CF93DF93CDB7DEB7B5
:103660006C970FB6F894DEBF0FBECDBF789484B5CB
:10367000826084BD84B5816084BD85B5826085BD6E
:1036800085B5816085BD80916E00816080936E00FC
:1036900010928100809181008260809381008091EE
:1036A000810081608093810080918000816080939F
:1036B00080008091B10084608093B1008091B0005F
:1036C00081608093B00080917A00846080937A005A
:1036D00080917A00826080937A0080917A00816084
:1036E00080937A0080917A00806880937A001092AB
:1036F000C100E091CB04F091CC0482E08083E091A2
:10370000C704F091C8041082E091C904F091CA0482
:103710008FEC80831092D304E091CF04F091D00419
:1037200086E08083E091CD04F091CE0480818061B9
:103730008083E091CD04F091CE0480818860808305
:10374000E091CD04F091CE04808180688083E09187
:10375000CD04F091CE0480818F7D808362EB74E094
:10376000CE0107960E94C214BE01695F7F4FCE0151
:1037700001960E94641165EE73E0CE0101960E94ED
:1037800046110E949719CE0101960E945F11CE0149
:1037900007960E945F118BEB94E00E9481128CEDE2
:1037A00090E00E9496288C01DC0115961C921E92D6
:1037B000149717961C921E921697A8950FB6F89418
:1037C000A8958091600088618093600010926000ED
:1037D0000FBE0E94D61AF80160837183828393839F
:1037E000118610867801FAE0EF0EF11CD8011B96C5
:1037F0001C930E931A97F80116861786108A118A61
:1038000052961D921D921D921C925597168A178AE8
:10381000108E118E128E138E62EB74E0CE0107961D
:103820000E94C214BE01695F7F4FCE0101960E94C3
:1038300064116DEE73E0CE0101960E9446110E9464
:103840009719CE0101960E945F11CE0107960E9442
:103850005F118BEB94E00E94811262E082E00E9493
:10386000041A0E94B11A4B015C010E94B11ADC01DA
:10387000CB0188199909AA09BB09883E9340A10583
:10388000B10598F30E94B01921E030E0892B11F4C2
:1038900020E030E0D8011D963C932E931C97F092C7
:1038A000B504E092B40489ED98E09093010180930F
:1038B0000001809169008C7F816080936900E89AA3
:1038C00087E291E05D969C938E935C9786E696E600
:1038D000A6E8B0E4F80180A391A3A2A3B3A383E375
:1038E00093E3A3E3B0E484A395A3A6A3B7A38DECCD
:1038F0009CECACE4B0E480A791A7A2A7B3A787E8AB
:1039000096E1A9E5BDE384A795A7A6A7B7A780E19F
:10391000868F33243394378E60E00E94041A480166
:10392000F0E38F0E911C8DE291E0D801D1969C932B
:103930008E93D09780E090E0A0E8BFEBF80184ABD5
:1039400095ABA6ABB7AB62EB74E0CE0107960E94D5
:10395000C214BE01695F7F4FCE0101960E946411BF
:1039600067EF73E0CE0101960E9446110E949719FD
:10397000CE0101960E945F11CE0107960E945F1151
:103980008BEB94E00E94811261E089E00E94041AAE
:1039900061E089E00E94D41981E090E0D801D396DB
:1039A0009C938E93D29780918100887F84608093CE
:1039B000810061E08AE00E94D41961E08AE00E94FF
:1039C000041A8CB580618CBD8CB580648CBD61E0BF
:1039D0008DE00E94041A61E08BE00E94041A60E00E
:1039E0008AE00E94D41989E391E0F80191AB80ABA1
:1039F00035AE88E1EBE0F1E0D801DE9601900D9262
:103A00008A95E1F7F801EA5AFF4F82E08083319608
:103A10001082319610823196108231968FE0808329
:103A20003196108211821282138234961082118292
:103A30001282138262EB74E0CE0107960E94C214D8
:103A4000BE01695F7F4FCE0101960E94641160E064
:103A500074E0CE0101960E9446110E949719CE0192
:103A600001960E945F11CE0107960E945F118BEBB9
:103A700094E00E94811260E08FE00E94041AF80135
:103A8000ED59FF4F12821382148215828AE090E072
:103A9000A0E0B0E086839783A087B1871386128663
:103AA00015861486D801AF58BF4F0D931C9385E43B
:103AB00091E091838083108A62EB74E0CE010796D7
:103AC0000E94C214BE01695F7F4FCE0101960E9421
:103AD00064116AE074E0CE0101960E9446110E94D2
:103AE0009719CE0101960E945F11CE0107960E94A0
:103AF0005F118BEB94E00E948112F801EC58FF4FAC
:103B0000128213821482158280E197E2A0E0B0E075
:103B100086839783A087B1871386128615861486BD
:103B20008FE491E091838083938A828A8FE692E189
:103B3000A3E0BBE3848B958BA68BB78B87E197EBD8
:103B4000A1EDB7E3808F918FA28FB38F80E090E0DB
:103B5000A0ECBFE3848F958FA68FB78FD801A056B6
:103B6000BF4FC8018E579F4F11969C938E93BE9660
:103B7000128213821482158248E853E160E070E0FB
:103B8000468357836087718713861286158614864D
:103B900089E591E091838083C8014C969787868759
:103BA0008EE59CE0918B808BB38BA28B80E090E0C4
:103BB000A0E8BFE3848B958BA68BB78B62EB74E098
:103BC000CE0107960E94C214BE01695F7F4FCE01ED
:103BD00001960E94641165E174E0CE0101960E9495
:103BE00046110E949719CE0101960E945F11CE01E5
:103BF00007960E945F118BEB94E00E9481123801BE
:103C0000FAEB6F0E711CD3011D921C92F801E25465
:103C1000FF4F118300835801BCEBAB0EB11C8FE149
:103C200094E0F5019583848383E691E0918380831A
:103C300062EB74E0CE0107960E94C214BE01695F78
:103C40007F4FCE0101960E9464116FE174E0CE01B6
:103C500001960E9446116CE274E00E9446116FE1E9
:103C600074E00E9446110E949719CE0101960E94AD
:103C70005F11CE0107960E945F118BEB94E00E94CA
:103C80008112F801EC53FF4F1183008332978FE2CA
:103C900094E09583848383E791E09183808362EB52
:103CA00074E0CE0107960E94C214BE01695F7F4F87
:103CB000CE0101960E9464116FE274E0CE0101967C
:103CC0000E9446116CE274E00E9446116FE274E0BB
:103CD0000E9446110E949719CE0101960E945F1121
:103CE000CE0107960E945F118BEB94E00E94811237
:103CF000F801E653FF4F118300837801F8ECEF0ED3
:103D0000F11C81E494E0D70115969C938E9314974F
:103D100083E891E011969C938E9319961C921E92C3
:103D2000189762EB74E0CE0107960E94C214BE01A0
:103D3000695F7F4FCE0101960E94641161E474E0D7
:103D4000CE0101960E9446116CE274E00E94461179
:103D500061E474E00E9446110E949719CE01019619
:103D60000E945F11CE0107960E945F118BEB94E0D9
:103D70000E94811286E190E00E9496286C01FC016D
:103D8000128213821482158216821782108611867F
:103D9000138612861586148693EA492E91E0592ED1
:103DA00051824082138A128A158A8CE090E00E9428
:103DB0009628FC011182108281E393E19383828330
:103DC000F582E48216821782108611861386128687
:103DD000D6015196FC93EE9350971F96FC93EE9369
:103DE0001E97F701D782C68254963C923C96118367
:103DF00000836801F2EDCF0ED11C8CE494E0D60173
:103E000015969C938E93149781EB91E011969C9359
:103E10008E938FEF18968C93189719968C9362EB6C
:103E200074E0CE0107960E94C214BE01695F7F4F05
:103E3000CE0101960E9464116CE474E0CE010196FB
:103E40000E9446116CE274E00E9446116CE474E03A
:103E50000E9446110E949719CE0101960E945F119F
:103E6000CE0107960E945F118BEB94E00E948112B5
:103E700086E190E00E9496287C01FC011282138268
:103E80001482158216821782108611861386128676
:103E90001586148651824082138A128A158A8CE014
:103EA00090E00E949628FC011182108287E294E142
:103EB00093838283D582C4821682178210861186EC
:103EC00013861286D7015196FC93EE9350971F9656
:103ED000FC93EE931E97F601F782E68254963C928D
:103EE00062EB74E0CE0107960E94C214BE01695FC6
:103EF0007F4FCE0101960E9464116FE574E0CE0100
:103F000001960E9446110E949719CE0101960E94C7
:103F10005F11CE0107960E945F118BEB94E00E9427
:103F200081121093B9040093B80462EB74E0CE01DF
:103F300007960E94C214BE01695F7F4FCE010196B1
:103F40000E9464116AE674E0CE0101960E94461157
:103F50000E949719CE0101960E945F11CE0107962B
:103F60000E945F118BEB94E00E94811260E081E17E
:103F70000E94041A1093B7040093B60460E070E046
:103F8000C8010E94390D0E94D61AD8016D937D9305
:103F90008D939C931397D096ED91FC91D1970480CB
:103FA000F581E02D40E050E0BA01C401099560E0E0
:103FB00070E0C5010E94B015F301B182A08228E132
:103FC000C22E3EE0D32EE090B804F090B9040E94D7
:103FD000D61AD7010D911D912D913C914B015C0199
:103FE000801A910AA20AB30A09F4F6C0F7016083A5
:103FF0007183828393830481158144244A94542CD1
:104000003201498E5A8E6B8E7C8EA50194012F5FF2
:104010003F4F4F4F5F4F298B3A8B4B8B5C8B01157A
:10402000110509F473C0D8011C968D919C911D97C0
:10403000019709F065C012964D905D906D907C904F
:1040400015974D8A5E8A6F8A788E84149504A6042B
:10405000B704E0F116964D905D906D907C901997A5
:104060004D865E866F86788AB301A2014D885E8890
:104070006F88788C4419550966097709480D591DD0
:104080006A1D7B1D8D859E85AF85B889480E591E9A
:104090006A1E7B1E4D865E866F86788A8414950420
:1040A000A604B70420F049885A886B887C88D80118
:1040B00012964D925D926D927C921597D801ED917A
:1040C000FC910480F581E02DC8010995F8018281F9
:1040D0009381A481B58188199909AA09BB098283B2
:1040E0009383A483B583498C5A8C6B8C7C8C841508
:1040F0009505A605B70520F4898F9A8FAB8FBC8FE5
:10410000D8011A960D911C911B9789CFD70114964F
:10411000ED91FC91159760E070E03097B9F19285D0
:104120008385248535852230310561F51586148611
:1041300013861286D70114964D915C9115971696A9
:104140002D913C911797E417F50779F414969C93F9
:10415000149715968C931597E217F307A1F416960A
:104160009C93169717968C930EC0DB011A969C931E
:104170001A971B968C93E217F30729F4F7017783BC
:10418000668301C0BF01E92FF82FC7CF298D3A8D73
:104190004B8D5C8D2230310541055105E0F0A8952D
:1041A0000FB6F894A895C09260000FBED092600040
:1041B00083B7817F83BFF89483B7816083BF85B75E
:1041C000806685BF85B78F7D85BF7894889583B7D6
:1041D0008E7F83BF01C0A8950E94A312F4CEEBEBA3
:1041E000F4E01382128288EE93E0A0E0B0E08483D2
:1041F0009583A683B78383EC91E09183808385ECDC
:1042000090E09587848784EC90E09787868780ECA0
:1042100090E0918B808B81EC90E0938B828B82EC91
:1042200090E0958B848B86EC90E0978B868B118E3B
:10423000128E138E148E0895EF920F931F93CF93C7
:10424000DF93E80147FD02C034E001C034E1E42F10
:10425000440FFF0BF7FF03C0F195E195F109E32E41
:10426000022F2E2FAE010E946121CE01DF91CF914E
:104270001F910F91EF900895BB274A3031F4992395
:1042800022F4BDE2909581959F4F0C944821BB2765
:10429000FB015527AA27880F991FAA1FA41710F002
:1042A000A41B83955051B9F7A05DAA3308F0A95D0E
:1042B000A193009779F7B111B1931192CB010C94AE
:1042C000C7234F925F926F927F929F92AF92BF925D
:1042D000CF92DF92EF92FF920F931F93CF93DF93D2
:1042E000CDB7DEB729970FB6F894DEBF0FBECDBFAE
:1042F0006A01122FB02E2BE3201720F0FF24F39435
:10430000F00E02C0BCE3FB2E0F2D27E0AE014F5F85
:104310005F4F0E94EF22AC018981982F99709130F4
:1043200031F0E1FC06C0E0FE06C090E205C09DE26F
:1043300003C09BE201C090E0EE2DE07183FF3CC022
:10434000911102C083E001C084E0811718F4212F8D
:10435000281B01C020E0E1110BC0F601822F30E2E2
:10436000882319F031938150FBCFC20ED11C20E07D
:10437000992329F0D6019C93F60131966F01C6016D
:104380000396E2FE0AC03EE4D6013C9341E4119656
:104390004C93119712963C9306C03EE6F60130838B
:1043A00041E641833283FC01322F40E2332309F49A
:1043B00042C041933150FACF82FF44C0911102C0F4
:1043C00083E001C084E0811718F4212F281B01C06D
:1043D00020E0E1110BC0F601822F30E2882319F0B2
:1043E00031938150FBCFC20ED11C20E0992329F0DC
:1043F000D6019C93F60131966F01C6010396E2FE49
:104400000BC039E4D6013C933EE411963C931197DE
:1044100036E412963C9307C039E6F60130833EE657
:10442000318336E63283FC01322F40E2332319F028
:1044300041933150FBCFFC01E20FF11D10828EEF52
:104440009FEFB7C0F1E0911101C0F0E06F2F70E075
:104450001416150624F49A012F5F3F4F02C021E085
:1044600030E0260F371FBB2029F06B2D70E06F5F07
:104470007F4F02C060E070E0260F371F612F70E0B1
:10448000261737071CF4121B212F01C020E03E2DF8
:10449000387159F4D601322F60E2332319F06D934D
:1044A0003150FBCFC20ED11C20E0FF2331F0D601EA
:1044B0009C93B6016F5F7F4F6B01E1110BC0F6015A
:1044C000922F30E3992319F031939150FBCFC20E14
:1044D000D11C20E09F2D940F3A81782F7071A72E68
:1044E00084FF03C0313309F49150191624F4993034
:1044F00018F098E001C091E0E42F852F57FF02C02B
:10450000E0E080E06E2F782FE0E0F0E0AEE29A2E5F
:104510003A01691A71082A01461A570A0B2D10E050
:104520001195019511096F3F8FEF780729F4D60196
:104530009C92C60101966C014617570784F06616D7
:1045400077066CF47F01E40CF51CA1E0B0E0AC0F41
:10455000BD1FEA0EFB1ED7011196BC9002C090E36E
:10456000B92E615071093196C60101967C01601720
:10457000710724F0D601BC926C01D5CF6417750782
:1045800041F4363320F4353321F4A11002C081E325
:10459000B82EF601B082F701822F90E2882319F03D
:1045A00091938150FBCFF701E20FF11D108280E063
:1045B00090E029960FB6F894DEBF0FBECDBFDF9115
:1045C000CF911F910F91FF90EF90DF90CF90BF9010
:1045D000AF909F907F906F905F904F90089528309C
:1045E00008F027E03327DA01990F311D87FD91602C
:1045F00000966105710539F432602E5F3D9330E31A
:104600002A95E1F708959F3F30F0803871056105E4
:1046100009F03C5F3C5F3D93913008F08068911D4C
:10462000DF93CF931F930F93FF92EF92192F987FF1
:104630009695E92F96959695E90FFF27EE59FE4F2F
:1046400099273327EE24FF24A701E701059008945A
:10465000079428F4360FE71EF81E491F511D660FF8
:10466000771F881F991F0694A1F70590079428F4D7
:10467000E70EF81E491F561FC11D770F881F991F8F
:10468000661F0694A1F70590079428F4F80E491FB9
:10469000561FC71FD11D880F991F661F771F0694CD
:1046A000A1F70590079420F4490F561FC71FD81F84
:1046B000990F661F771F881F0694A9F7849110959C
:1046C000177041F0D695C79557954795F794E7949D
:1046D0001A95C1F7E8E0F1E06894159015913591CD
:1046E0006591959105907FE27395E118F10A430B6E
:1046F000560BC90BD009C0F7E10CF11E431F561F22
:10470000C91FD01D7EF4703311F48A95E6CFE8946A
:10471000015030F0080F0AF40027021708F4202F88
:104720002395022F7A3328F079E37D932A95E9F7D0
:1047300010C07D932A9589F60694979567953795CD
:1047400017951794E118F10A430B560BC90BD009C2
:1047500098F023957E9173957A3308F070E37C93FB
:104760002013B8F77E9170617D9330F0839571E3EB
:104770007D9370E32A95E1F71124EF90FF900F915C
:104780001F91CF91DF91992787FD90950895DC01C6
:10479000FC01672F71917723E1F7329704C07C9178
:1047A0006D9370836291AE17BF07C8F308950E949E
:1047B000192408F481E00895E89409C097FB3EF4B9
:1047C00090958095709561957F4F8F4F9F4F99235E
:1047D000A9F0F92F96E9BB279395F69587957795DC
:1047E0006795B795F111F8CFFAF4BB0F11F460FF9C
:1047F0001BC06F5F7F4F8F4F9F4F16C0882311F0F4
:1048000096E911C0772321F09EE8872F762F05C007
:10481000662371F096E8862F70E060E02AF09A95A2
:10482000660F771F881FDAF7880F9695879597F997
:104830000895990F0008550FAA0BE0E8FEEF161631
:104840001706E807F907C0F012161306E407F50784
:1048500098F0621B730B840B950B39F40A2661F0F8
:10486000232B242B252B21F408950A2609F4A1409B
:10487000A6958FEF811D811D08950E9450240C94F0
:10488000C1240E94B32438F00E94BA2420F095235A
:1048900011F00C94AA240C94B02411240C94F52447
:1048A0000E94D22470F3959FC1F3950F50E0551FDD
:1048B000629FF001729FBB27F00DB11D639FAA2775
:1048C000F00DB11DAA1F649F6627B00DA11D661FC4
:1048D000829F2227B00DA11D621F739FB00DA11DE5
:1048E000621F839FA00D611D221F749F3327A00D9F
:1048F000611D231F849F600D211D822F762F6A2F3B
:1049000011249F5750409AF0F1F088234AF0EE0F9F
:10491000FF1FBB1F661F771F881F91505040A9F7CC
:104920009E3F510580F00C94AA240C94F5245F3F1F
:10493000E4F3983ED4F3869577956795B795F79508
:10494000E7959F5FC1F7FE2B880F911D9695879580
:1049500097F9089597F99F6780E870E060E00895FF
:104960009FEF80EC089500240A9416161706180687
:104970000906089500240A94121613061406050663
:104980000895092E0394000C11F4882352F0BB0FF4
:1049900040F4BF2B11F460FF04C06F5F7F4F8F4F57
:1049A0009F4F089557FD9058440F551F59F05F3F92
:1049B00071F04795880F97FB991F61F09F3F79F041
:1049C00087950895121613061406551FF2CF4695C3
:1049D000F1DF08C0161617061806991FF1CF869545
:1049E0007105610508940895E894BB276627772729
:1049F000CB0197F908952F923F924F925F926F9259
:104A00007F928F929F92AF92BF92CF92DF92EF925E
:104A1000FF920F931F93CF93DF93CDB7DEB7CA1BDF
:104A2000DB0B0FB6F894DEBF0FBECDBF09942A880A
:104A3000398848885F846E847D848C849B84AA84B2
:104A4000B984C884DF80EE80FD800C811B81AA813F
:104A5000B981CE0FD11D0FB6F894DEBF0FBECDBF0A
:104A6000ED0108955058BB27AA270E944A250C94AF
:104A7000C1240E94B32438F00E94BA2420F039F4F3
:104A80009F3F19F426F40C94B0240EF4E095E7FB54
:104A90000C94AA24E92F0E94D22458F3BA17620773
:104AA00073078407950720F079F4A6F50C94F42495
:104AB0000EF4E0950B2EBA2FA02D0B01B901900139
:104AC0000C01CA01A0011124FF27591B99F0593F7D
:104AD00050F4503E68F11A16F040A22F232F342FC5
:104AE0004427585FF3CF469537952795A795F04013
:104AF0005395C9F77EF41F16BA0B620B730B840B28
:104B0000BAF09150A1F0FF0FBB1F661F771F881FDF
:104B1000C2F70EC0BA0F621F731F841F48F4879537
:104B200077956795B795F7959E3F08F0B0CF939529
:104B3000880F08F09927EE0F9795879508950E94A2
:104B4000B3250C94C1240E94BA2458F00E94B324C7
:104B500040F029F45F3F29F00C94AA2451110C94E1
:104B6000F5240C94B0240E94D22468F39923B1F365
:104B7000552391F3951B550BBB27AA276217730783
:104B8000840738F09F5F5F4F220F331F441FAA1F17
:104B9000A9F335D00E2E3AF0E0E832D091505040D3
:104BA000E695001CCAF72BD0FE2F29D0660F771F81
:104BB000881FBB1F261737074807AB07B0E809F067
:104BC000BB0B802DBF01FF2793585F4F3AF09E3FEC
:104BD000510578F00C94AA240C94F5245F3FE4F37B
:104BE000983ED4F3869577956795B795F7959F5F2F
:104BF000C9F7880F911D9695879597F90895E1E07B
:104C0000660F771F881FBB1F621773078407BA07D9
:104C100020F0621B730B840BBA0BEE1F88F7E09534
:104C200008950E9418266894B1110C94F5240895F3
:104C30000E94DA2488F09F5798F0B92F9927B7512E
:104C4000B0F0E1F0660F771F881F991F1AF0BA9530
:104C5000C9F714C0B13091F00E94F424B1E0089576
:104C60000C94F424672F782F8827B85F39F0B93F68
:104C7000CCF3869577956795B395D9F73EF49095E3
:104C80008095709561957F4F8F4F9F4F08950E943B
:104C9000192408F48FEF0895FA01EE0FFF1F3096E4
:104CA00021053105A1F16115710561F48038BFE37B
:104CB0009B0749F168949038810561F08038BFEF17
:104CC0009B0741F099234AF5FF3FE1053105210596
:104CD00019F1E8940894E795D901AA2329F4AB2F98
:104CE000BE2FF85FD0F310C0FF5F70F4A695E0F719
:104CF000F73950F019F0FF3A38F49F779F930DD0B1
:104D00000F9007FC9058089546F00C94B02460E092
:104D100070E080E89FE308954FE79F775F934F939C
:104D20003F932F930E948E272F913F914F915F9138
:104D30000E943D240C94AC269F930E9407270F905D
:104D400007FCEE5F0C94302729F416F00C94AA248B
:104D50000C94F4240C94B0240E94DA24A8F396381E
:104D6000A0F707F80F92E8942BE33AEA48EB5FE7E5
:104D70000E9453240F920F920F924DB75EB70F927D
:104D80000E94D627E8E6F0E00E94DE264F915F9170
:104D9000EF91FF91E595EE1FFF1F49F0FE57E06888
:104DA0004427EE0F441FFA95E1F74195550B0E94F9
:104DB00050270F9007FE0C9444270895DF93CF935C
:104DC0001F930F93FF92EF92DF927B018C01689407
:104DD00006C0DA2EEF010E945024FE01E894A5914E
:104DE0002591359145915591A6F3EF010E944A25F1
:104DF000FE019701A801DA9469F7DF90EF90FF9028
:104E00000F911F91CF91DF9108950C94B0240E94CF
:104E1000DA24D8F3E894E0E0BB279F57F0F02AEDBE
:104E20003FE049EC06C0EE0FBB0F661F771F881FDF
:104E300028F0B23A62077307840728F0B25A620B6F
:104E4000730B840BE3959A9572F7803830F49A953A
:104E5000BB0F661F771F881FD2F790480C940C2851
:104E6000EF93E0FF07C0A2EA2AED3FE049EC5FEBD9
:104E70000E944A250E94C1240F90039401FC90587F
:104E8000E0E9F0E00C9418289B01AC0160E070E0D0
:104E900080E89FE30C949F250C94AA240C940A2884
:104EA0000E94DA24D8F39923C9F3940F511DA3F378
:104EB0009150504094F059F0882332F0660F771FDC
:104EC000881F91505040C1F79E3F51052CF7880F25
:104ED000911D9695879597F908955F3FACF0983EA0
:104EE0009CF0BB27869577956795B79508F4B160D8
:104EF0009395C1F7BB0F58F711F460FFE8CF6F5FD0
:104F00007F4F8F4F9F4FE3CF0C94F52416F00C94F6
:104F10000A280C94B02468940C94AA240E94DA24E1
:104F2000A8F39923C1F3AEF3DF93CF931F930F93AD
:104F3000FF92C92FDD2788232AF02197660F771F5C
:104F4000881FDAF720E030E040E85FEB9FE3883924
:104F500020F0803E38F021968F770E943325EEEACC
:104F6000F0E004C00E943325EBEDF0E00E94DE2665
:104F70008B01BE01EC01FB2E6F5771097595771FF0
:104F8000880B990B0E94DE2328E132E741E35FE3BF
:104F90000E945024AF2D9801AE01FF900F911F91F8
:104FA000CF91DF910E944A250C94C124FA01DC01C3
:104FB000AA0FBB1F9B01AC01BF5728F42227332740
:104FC0004427507820C0B75190F4AB2F0024469569
:104FD00037952795011CA395D2F3002071F0220F7D
:104FE000331F441FB395DAF30ED00C943225613091
:104FF0007105A0E88A07B94630F49B01AC01662729
:10500000772788279078309621F020833183428358
:10501000538308959F3F31F0915020F48795779501
:105020006795B795880F911D9695879597F908957F
:105030009F938F937F936F93FF93EF939B01AC01AB
:105040000E943D24EF91FF910E94DE262F913F9117
:105050004F915F910C943D2487FB082E062687FD17
:10506000819567FD61950E9470280EF4919507FC6B
:105070008195089597FB072E16F4009407D077FDCD
:1050800009D00E947C2807FC05D03EF490958195BC
:105090009F4F0895709561957F4F0895A1E21A2E54
:1050A000AA1BBB1BFD010DC0AA1FBB1FEE1FFF1FCC
:1050B000A217B307E407F50720F0A21BB30BE40B1C
:1050C000F50B661F771F881F991F1A9469F7609563
:1050D0007095809590959B01AC01BD01CF0108951D
:1050E000991B79E004C0991F961708F0961B881F3A
:1050F0007A95C9F780950895AA1BBB1B51E107C09B
:10510000AA1FBB1FA617B70710F0A61BB70B881F57
:10511000991F5A95A9F780959095BC01CD010895E6
:10512000EE0FFF1F0590F491E02D0994CF93DF93CC
:105130008230910510F482E090E0E0916305F091F7
:10514000640520E030E0C0E0D0E0309711F140810C
:10515000518148175907C0F04817590761F48281F7
:105160009381209719F09B838A832BC090936405C9
:105170008093630526C02115310519F042175307A6
:1051800018F49A01BE01DF01EF010280F381E02DE6
:10519000DCCF2115310509F1281B390B24303105ED
:1051A00090F412968D919C9113976115710521F0E1
:1051B000FB019383828304C090936405809363050D
:1051C000FD01329644C0FD01E20FF31F81939193DC
:1051D000225031092D933C933AC0209161053091C2
:1051E0006205232B41F42091060130910701309391
:1051F000620520936105209104013091050121157C
:10520000310541F42DB73EB7409108015091090195
:10521000241B350BE0916105F0916205E217F3075D
:10522000A0F42E1B3F0B2817390778F0AC014E5F16
:105230005F4F2417350748F04E0F5F1F50936205EC
:10524000409361058193919302C0E0E0F0E0CF01CB
:10525000DF91CF9108950F931F93CF93DF93009722
:1052600009F48CC0FC01329713821282009163050D
:10527000109164050115110581F420813181820F9F
:10528000931F20916105309162052817390779F540
:10529000F0936205E093610571C0D80140E050E0F1
:1052A000AE17BF0750F412962D913C911397AD01A4
:1052B0002115310509F1D901F3CF9D01DA013383BD
:1052C000228360817181860F971F8217930769F48B
:1052D000EC0128813981260F371F2E5F3F4F318324
:1052E00020838A819B8193838283452B29F4F093C9
:1052F0006405E093630542C01396FC93EE93129706
:10530000ED01499159919E01240F351FE217F307D2
:1053100071F480819181840F951F029611969C9360
:105320008E938281938113969C938E931297E0E0E3
:10533000F0E0D80112968D919C911397009719F087
:10534000F8018C01F6CF8D919C9198012E5F3F4F13
:10535000820F931F2091610530916205281739074C
:1053600069F4309729F4109264051092630502C025
:10537000138212821093620500936105DF91CF9131
:105380001F910F910895A0E0B0E0E9ECF9E20C94D0
:10539000FF24EC01009721F4CB010E949628B8C0AD
:1053A000FC01E60FF71F9C0122503109E217F307B9
:1053B00008F4ACC0D9010D911C911197061717077D
:1053C000B0F00530110508F49FC0C8010497861796
:1053D000970708F499C002501109061B170B019397
:1053E00011936D937C93CF010E942B298DC05B019B
:1053F000A01AB10A4C01800E911EA0916305B091D4
:10540000640540E050E0E12CF12C109709F44AC00B
:10541000A815B905D1F56D907C901197630182E0D4
:10542000C80ED11CCA14DB0480F1A3014A195B0920
:105430006A0182E0C80ED11C1296BC901297139696
:10544000AC91B5E0CB16D10440F0B282A383518376
:105450004083D9016D937C930AC00E5F1F4FC30137
:10546000800F911FF90191838083EB2DFA2FE114B6
:10547000F10431F0D7011396FC93EE93129744C0D8
:10548000F0936405E09363053FC08D919C91119763
:105490004817590708F4AC017D0112960D90BC9194
:1054A000A02DB3CF80916105909162058815990573
:1054B000E1F446175707C8F4809104019091050163
:1054C000009741F48DB79EB74091080150910901B2
:1054D000841B950BE817F907C8F4F0936205E09375
:1054E0006105F901718360830FC0CB010E9496288A
:1054F0007C01009759F0A801BE010E94922ACE01BA
:105500000E942B29C70104C0CE0102C080E090E0B8
:10551000CDB7DEB7EEE00C941B2581E090E0F89467
:105520000C94A22AFB01DC0102C001900D924150B3
:105530005040D8F70895FB01DC0101900D92002046
:08554000E1F70895F894FFCF94
:10554800A211A211000065058000626F12033B0AD8
:10555800D7A33CCDCC4C3E0000003F0000403F00AC
:1055680000803F00000000A503000000003E10ED91
:10557800090B07C90100000000390EEB09EF0938D3
:1055880002000000003115FD14AF1700000000EC08
:10559800062E02600800000000AC012E02C40200C2
:1055A8000000008114B015221366156C192D130024
:1055B800000000630ECB0F32023E020E0EE9090016
:1055C80000000095181117320223196B192B1300CC
:1055D80000000036023402320231020F0EE70900E1
:1055E80000000021022E02CF01EE0D040E00000083
:1055F8000036023402D00E7C026D192F137462003B
:105608000000003A12A311D21181120312E111F520
:10561800113A3A6F6E457869744D6F64650055703C
:10562800642E20626172654C6576656C54682E2024
:105638000054656D702E20004B70202A2065727210
:105648006F7220004B69202A206572726F72496E52
:1056580074656772616C20004B64202A206465724F
:10566800200054656D70504944436F6E74726F6CBE
:105678005661726961626C65200063757272656E4D
:1056880074546F54656D7065726174757265546198
:1056980072676574200070776D416D6F756E743A2E
:1056A80020004C443A3A646967506F7457726974C1
:1056B80065200042746E3A3A6F6E427574746F6E6C
:1056C80046616C6C00427574746F6E206973207249
:1056D800657475726E696E67204C4F572066726FDD
:1056E8006D204C4F570042746E3A3A6F6E42757493
:1056F800746F6E5269736500427574746F6E2069B9
:10570800732072657475726E696E672048494748E0
:105718002066726F6D204849474800414C443A3A28
:10572800736574506F74656E74696F6D65746572B6
:105738004C6576656C20004F4E004F4646004C4441
:105748003A3A7377697463684C696768745374612B
:10575800747573200020636F756C646E27742068FD
:10576800616E646C6520696E746572616374696FDB
:105778006E2E200020636C69636B732C20002068F8
:105788006F6C6420737465707300476C68743A3A80
:10579800656E7465724D6F6465200020636F756C6B
:1057A800646E27742068616E646C65206D73672071
:1057B80000416C7265616479207368757474696EF0
:1057C8006720646F776E00426174742E20697320BD
:1057D800656D70747900476C68743A3A73776974C8
:1057E8006368506F77657220002D2D2D0A48455249
:1057F8004520474E554C494748540A2D2D2D002D1C
:105808002D2D0A474F4F444259450A2D2D2D003A58
:105818003A6F6E456E7465724D6F646500207661EF
:105828006C756520007365747570282900496E735E
:10583800742E2042746E00496E73742E204C4400FE
:10584800496E73742E20414C4400496E73742E20A7
:1058580055494D5400496E73742E204C424D0050EA
:105868006F7765724F66664D6F6465003A3A00431C
:105878006F6E7374616E744C696768744D6F64659C
:10588800005374726F62654D6F6465005061726198
:105898006D65746572436865636B4D6F6465004937
:1058A8006E73742E20476C687400476C68743A3ABB
:1058B80073657475700055494D543A3A4F6E537478
:1058C8006F700055494D543A3A4F6E537461727473
:1058D800007374726F626520747970652000427479
:1058E8006E20696E746572616374696F6E2E200034
:0458F8000D0A000095
:00000001FF
